{
  "contractName": "Medianizer",
  "abi": [
    {
      "constant": true,
      "inputs": [],
      "name": "subscribeFee",
      "outputs": [
        {
          "name": "",
          "type": "uint256"
        }
      ],
      "payable": false,
      "stateMutability": "view",
      "type": "function",
      "signature": "0x134ac62f"
    },
    {
      "constant": false,
      "inputs": [
        {
          "name": "owner_",
          "type": "address"
        }
      ],
      "name": "setOwner",
      "outputs": [],
      "payable": false,
      "stateMutability": "nonpayable",
      "type": "function",
      "signature": "0x13af4035"
    },
    {
      "constant": true,
      "inputs": [
        {
          "name": "",
          "type": "address"
        }
      ],
      "name": "stakeTime",
      "outputs": [
        {
          "name": "",
          "type": "uint256"
        }
      ],
      "payable": false,
      "stateMutability": "view",
      "type": "function",
      "signature": "0x2170e472"
    },
    {
      "constant": true,
      "inputs": [
        {
          "name": "",
          "type": "address"
        }
      ],
      "name": "stakesFor",
      "outputs": [
        {
          "name": "",
          "type": "uint256"
        }
      ],
      "payable": false,
      "stateMutability": "view",
      "type": "function",
      "signature": "0x25a1dfe0"
    },
    {
      "constant": true,
      "inputs": [],
      "name": "myn",
      "outputs": [
        {
          "name": "",
          "type": "uint256"
        }
      ],
      "payable": false,
      "stateMutability": "view",
      "type": "function",
      "signature": "0x2d4ef00d"
    },
    {
      "constant": true,
      "inputs": [
        {
          "name": "",
          "type": "address"
        }
      ],
      "name": "indexes",
      "outputs": [
        {
          "name": "",
          "type": "uint256"
        }
      ],
      "payable": false,
      "stateMutability": "view",
      "type": "function",
      "signature": "0x2db78d93"
    },
    {
      "constant": true,
      "inputs": [],
      "name": "subBlockDuration",
      "outputs": [
        {
          "name": "",
          "type": "uint256"
        }
      ],
      "payable": false,
      "stateMutability": "view",
      "type": "function",
      "signature": "0x35413eb4"
    },
    {
      "constant": true,
      "inputs": [],
      "name": "stakeSize",
      "outputs": [
        {
          "name": "",
          "type": "uint256"
        }
      ],
      "payable": false,
      "stateMutability": "view",
      "type": "function",
      "signature": "0x3a34330e"
    },
    {
      "constant": true,
      "inputs": [
        {
          "name": "",
          "type": "uint256"
        }
      ],
      "name": "feeds",
      "outputs": [
        {
          "name": "",
          "type": "address"
        }
      ],
      "payable": false,
      "stateMutability": "view",
      "type": "function",
      "signature": "0x4a5479f3"
    },
    {
      "constant": true,
      "inputs": [],
      "name": "next",
      "outputs": [
        {
          "name": "",
          "type": "uint256"
        }
      ],
      "payable": false,
      "stateMutability": "view",
      "type": "function",
      "signature": "0x4c8fe526"
    },
    {
      "constant": true,
      "inputs": [],
      "name": "minStakeDuration",
      "outputs": [
        {
          "name": "",
          "type": "uint256"
        }
      ],
      "payable": false,
      "stateMutability": "view",
      "type": "function",
      "signature": "0x5fec5c64"
    },
    {
      "constant": true,
      "inputs": [
        {
          "name": "",
          "type": "address"
        }
      ],
      "name": "expiryTimes",
      "outputs": [
        {
          "name": "",
          "type": "uint256"
        }
      ],
      "payable": false,
      "stateMutability": "view",
      "type": "function",
      "signature": "0x6dfe1ee9"
    },
    {
      "constant": false,
      "inputs": [
        {
          "name": "authority_",
          "type": "address"
        }
      ],
      "name": "setAuthority",
      "outputs": [],
      "payable": false,
      "stateMutability": "nonpayable",
      "type": "function",
      "signature": "0x7a9e5e4b"
    },
    {
      "constant": true,
      "inputs": [],
      "name": "owner",
      "outputs": [
        {
          "name": "",
          "type": "address"
        }
      ],
      "payable": false,
      "stateMutability": "view",
      "type": "function",
      "signature": "0x8da5cb5b"
    },
    {
      "constant": true,
      "inputs": [],
      "name": "authority",
      "outputs": [
        {
          "name": "",
          "type": "address"
        }
      ],
      "payable": false,
      "stateMutability": "view",
      "type": "function",
      "signature": "0xbf7e214f"
    },
    {
      "constant": true,
      "inputs": [
        {
          "name": "",
          "type": "address"
        }
      ],
      "name": "ownerToFeed",
      "outputs": [
        {
          "name": "",
          "type": "address"
        }
      ],
      "payable": false,
      "stateMutability": "view",
      "type": "function",
      "signature": "0xe32a528f"
    },
    {
      "constant": true,
      "inputs": [],
      "name": "token",
      "outputs": [
        {
          "name": "",
          "type": "address"
        }
      ],
      "payable": false,
      "stateMutability": "view",
      "type": "function",
      "signature": "0xfc0c546a"
    },
    {
      "inputs": [
        {
          "name": "_minStakeDuration",
          "type": "uint256"
        },
        {
          "name": "_token",
          "type": "address"
        },
        {
          "name": "_stakeSize",
          "type": "uint256"
        }
      ],
      "payable": false,
      "stateMutability": "nonpayable",
      "type": "constructor",
      "signature": "constructor"
    },
    {
      "anonymous": false,
      "inputs": [
        {
          "indexed": false,
          "name": "marketId",
          "type": "uint256"
        },
        {
          "indexed": false,
          "name": "val",
          "type": "uint256"
        }
      ],
      "name": "LogValue",
      "type": "event",
      "signature": "0xa9a26360ded17bbe6528a5ec42df34cc22964927204d7a69575e12c6839d426c"
    },
    {
      "anonymous": false,
      "inputs": [
        {
          "indexed": false,
          "name": "newValue",
          "type": "uint256"
        }
      ],
      "name": "MinBlocksUpdated",
      "type": "event",
      "signature": "0x3f9b4ec1b01b6ead80d9968c89b064638bb9e72cbacbd45664d38acdd3b6d4bb"
    },
    {
      "anonymous": false,
      "inputs": [
        {
          "indexed": true,
          "name": "user",
          "type": "address"
        },
        {
          "indexed": false,
          "name": "amount",
          "type": "uint256"
        },
        {
          "indexed": false,
          "name": "total",
          "type": "uint256"
        }
      ],
      "name": "Staked",
      "type": "event",
      "signature": "0x1449c6dd7851abc30abf37f57715f492010519147cc2652fbc38202c18a6ee90"
    },
    {
      "anonymous": false,
      "inputs": [
        {
          "indexed": true,
          "name": "user",
          "type": "address"
        },
        {
          "indexed": false,
          "name": "amount",
          "type": "uint256"
        },
        {
          "indexed": false,
          "name": "total",
          "type": "uint256"
        }
      ],
      "name": "Unstaked",
      "type": "event",
      "signature": "0x7fc4727e062e336010f2c282598ef5f14facb3de68cf8195c2f23e1454b2b74e"
    },
    {
      "anonymous": false,
      "inputs": [
        {
          "indexed": false,
          "name": "pos",
          "type": "uint256"
        },
        {
          "indexed": false,
          "name": "feed",
          "type": "address"
        }
      ],
      "name": "FeedSet",
      "type": "event",
      "signature": "0xcb9c5cab7a629e9e21f21c2e7feda9eb584ae198580ceaf18fb93558a8acd4e5"
    },
    {
      "anonymous": false,
      "inputs": [
        {
          "indexed": false,
          "name": "expiryTime",
          "type": "uint256"
        },
        {
          "indexed": false,
          "name": "blockNow",
          "type": "uint256"
        }
      ],
      "name": "IsSub",
      "type": "event",
      "signature": "0xa8d6e3c79a652fa183fabbedd731c3ecadbfbef00a940396441732a2e6b1b108"
    },
    {
      "anonymous": false,
      "inputs": [
        {
          "indexed": true,
          "name": "user",
          "type": "address"
        },
        {
          "indexed": false,
          "name": "expiryTime",
          "type": "uint256"
        },
        {
          "indexed": false,
          "name": "amountPaid",
          "type": "uint256"
        }
      ],
      "name": "Subscribed",
      "type": "event",
      "signature": "0xf94991dcbea6e8ac439cbc93bd9c62a4d39f04e0ad656df9a703f13552c2787f"
    },
    {
      "anonymous": false,
      "inputs": [
        {
          "indexed": true,
          "name": "user",
          "type": "address"
        },
        {
          "indexed": false,
          "name": "amount",
          "type": "uint256"
        },
        {
          "indexed": false,
          "name": "total",
          "type": "uint256"
        },
        {
          "indexed": false,
          "name": "data",
          "type": "bytes"
        }
      ],
      "name": "Staked",
      "type": "event",
      "signature": "0xc65e53b88159e7d2c0fc12a0600072e28ae53ff73b4c1715369c30f160935142"
    },
    {
      "anonymous": false,
      "inputs": [
        {
          "indexed": true,
          "name": "user",
          "type": "address"
        },
        {
          "indexed": false,
          "name": "amount",
          "type": "uint256"
        },
        {
          "indexed": false,
          "name": "total",
          "type": "uint256"
        },
        {
          "indexed": false,
          "name": "data",
          "type": "bytes"
        }
      ],
      "name": "Unstaked",
      "type": "event",
      "signature": "0xaf01bfc8475df280aca00b578c4a948e6d95700f0db8c13365240f7f973c8754"
    },
    {
      "anonymous": true,
      "inputs": [
        {
          "indexed": true,
          "name": "sig",
          "type": "bytes4"
        },
        {
          "indexed": true,
          "name": "guy",
          "type": "address"
        },
        {
          "indexed": true,
          "name": "foo",
          "type": "bytes32"
        },
        {
          "indexed": true,
          "name": "bar",
          "type": "bytes32"
        },
        {
          "indexed": false,
          "name": "fax",
          "type": "bytes"
        }
      ],
      "name": "LogNote",
      "type": "event",
      "signature": "0xd3d8bec38a91a5f4411247483bc030a174e77cda9c0351924c759f41453aa5e8"
    },
    {
      "anonymous": false,
      "inputs": [
        {
          "indexed": true,
          "name": "authority",
          "type": "address"
        }
      ],
      "name": "LogSetAuthority",
      "type": "event",
      "signature": "0x1abebea81bfa2637f28358c371278fb15ede7ea8dd28d2e03b112ff6d936ada4"
    },
    {
      "anonymous": false,
      "inputs": [
        {
          "indexed": true,
          "name": "owner",
          "type": "address"
        }
      ],
      "name": "LogSetOwner",
      "type": "event",
      "signature": "0xce241d7ca1f669fee44b6fc00b8eba2df3bb514eed0f6f668f8f89096e81ed94"
    },
    {
      "constant": false,
      "inputs": [
        {
          "name": "_marketId",
          "type": "uint256"
        }
      ],
      "name": "poke",
      "outputs": [
        {
          "name": "",
          "type": "bool"
        }
      ],
      "payable": false,
      "stateMutability": "nonpayable",
      "type": "function",
      "signature": "0x32145f90"
    },
    {
      "constant": true,
      "inputs": [
        {
          "name": "_address",
          "type": "address"
        }
      ],
      "name": "getOwnerToFeed",
      "outputs": [
        {
          "name": "",
          "type": "address"
        }
      ],
      "payable": false,
      "stateMutability": "view",
      "type": "function",
      "signature": "0x3ae29261"
    },
    {
      "constant": true,
      "inputs": [],
      "name": "usesYBT",
      "outputs": [
        {
          "name": "",
          "type": "bool"
        }
      ],
      "payable": false,
      "stateMutability": "view",
      "type": "function",
      "signature": "0x51b7ef0b"
    },
    {
      "constant": false,
      "inputs": [
        {
          "name": "_user",
          "type": "address"
        }
      ],
      "name": "withdrawRewards",
      "outputs": [
        {
          "name": "",
          "type": "bool"
        }
      ],
      "payable": false,
      "stateMutability": "nonpayable",
      "type": "function",
      "signature": "0x42d86693"
    },
    {
      "constant": false,
      "inputs": [
        {
          "name": "user",
          "type": "address"
        },
        {
          "name": "amount",
          "type": "uint256"
        }
      ],
      "name": "stake",
      "outputs": [
        {
          "name": "",
          "type": "bool"
        }
      ],
      "payable": false,
      "stateMutability": "nonpayable",
      "type": "function",
      "signature": "0xadc9772e"
    },
    {
      "constant": false,
      "inputs": [
        {
          "name": "_user",
          "type": "address"
        }
      ],
      "name": "unstake",
      "outputs": [
        {
          "name": "",
          "type": "bool"
        }
      ],
      "payable": false,
      "stateMutability": "nonpayable",
      "type": "function",
      "signature": "0xf2888dbb"
    },
    {
      "constant": true,
      "inputs": [
        {
          "name": "addr",
          "type": "address"
        }
      ],
      "name": "totalStakedFor",
      "outputs": [
        {
          "name": "",
          "type": "uint256"
        }
      ],
      "payable": false,
      "stateMutability": "view",
      "type": "function",
      "signature": "0x4b341aed"
    },
    {
      "constant": false,
      "inputs": [
        {
          "name": "_amount",
          "type": "uint256"
        },
        {
          "name": "_expiry",
          "type": "uint256"
        }
      ],
      "name": "subscribe",
      "outputs": [
        {
          "name": "",
          "type": "bool"
        }
      ],
      "payable": false,
      "stateMutability": "nonpayable",
      "type": "function",
      "signature": "0x84370813"
    },
    {
      "constant": true,
      "inputs": [
        {
          "name": "_marketId",
          "type": "uint256"
        }
      ],
      "name": "read",
      "outputs": [
        {
          "name": "",
          "type": "uint256"
        }
      ],
      "payable": false,
      "stateMutability": "view",
      "type": "function",
      "signature": "0xed2e5a97"
    },
    {
      "constant": true,
      "inputs": [
        {
          "name": "_marketId",
          "type": "uint256"
        }
      ],
      "name": "compute",
      "outputs": [
        {
          "name": "",
          "type": "uint256"
        }
      ],
      "payable": false,
      "stateMutability": "view",
      "type": "function",
      "signature": "0x5ed86d5c"
    }
  ],
  "bytecode": "0x6080604052670de0b6b3a7640000600260006101000a8154816fffffffffffffffffffffffffffffffff02191690836fffffffffffffffffffffffffffffffff1602179055506b033b2e3c9fd0803ce8000000600260106101000a8154816fffffffffffffffffffffffffffffffff02191690836fffffffffffffffffffffffffffffffff1602179055506000600355600060045560016005556001600655678ac7230489e8000060085560646009553480156100bb57600080fd5b50604051606080613538833981018060405260608110156100db57600080fd5b8101908080519060200190929190805190602001909291908051906020019092919050505033600160006101000a81548173ffffffffffffffffffffffffffffffffffffffff021916908373ffffffffffffffffffffffffffffffffffffffff1602179055503373ffffffffffffffffffffffffffffffffffffffff167fce241d7ca1f669fee44b6fc00b8eba2df3bb514eed0f6f668f8f89096e81ed9460405160405180910390a2826003819055507f3f9b4ec1b01b6ead80d9968c89b064638bb9e72cbacbd45664d38acdd3b6d4bb836040518082815260200191505060405180910390a181600760006101000a81548173ffffffffffffffffffffffffffffffffffffffff021916908373ffffffffffffffffffffffffffffffffffffffff1602179055508060048190555050505061331c8061021c6000396000f3fe608060405234801561001057600080fd5b50600436106101c6576000357c0100000000000000000000000000000000000000000000000000000000900480634c8fe526116101165780638da5cb5b116100b4578063e32a528f1161008e578063e32a528f14610801578063ed2e5a9714610885578063f2888dbb146108c7578063fc0c546a14610923576101c6565b80638da5cb5b14610707578063adc9772e14610751578063bf7e214f146107b7576101c6565b80635fec5c64116100f05780635fec5c64146105fd5780636dfe1ee91461061b5780637a9e5e4b1461067357806384370813146106b7576101c6565b80634c8fe5261461057b57806351b7ef0b146105995780635ed86d5c146105bb576101c6565b806332145f90116101835780633ae292611161015d5780633ae29261146103d557806342d86693146104595780634a5479f3146104b55780634b341aed14610523576101c6565b806332145f901461035357806335413eb4146103995780633a34330e146103b7576101c6565b8063134ac62f146101cb57806313af4035146101e95780632170e4721461022d57806325a1dfe0146102855780632d4ef00d146102dd5780632db78d93146102fb575b600080fd5b6101d361096d565b6040518082815260200191505060405180910390f35b61022b600480360360208110156101ff57600080fd5b81019080803573ffffffffffffffffffffffffffffffffffffffff169060200190929190505050610973565b005b61026f6004803603602081101561024357600080fd5b81019080803573ffffffffffffffffffffffffffffffffffffffff169060200190929190505050610a52565b6040518082815260200191505060405180910390f35b6102c76004803603602081101561029b57600080fd5b81019080803573ffffffffffffffffffffffffffffffffffffffff169060200190929190505050610a6a565b6040518082815260200191505060405180910390f35b6102e5610a82565b6040518082815260200191505060405180910390f35b61033d6004803603602081101561031157600080fd5b81019080803573ffffffffffffffffffffffffffffffffffffffff169060200190929190505050610a88565b6040518082815260200191505060405180910390f35b61037f6004803603602081101561036957600080fd5b8101908080359060200190929190505050610aa0565b604051808215151515815260200191505060405180910390f35b6103a1610b0f565b6040518082815260200191505060405180910390f35b6103bf610b15565b6040518082815260200191505060405180910390f35b610417600480360360208110156103eb57600080fd5b81019080803573ffffffffffffffffffffffffffffffffffffffff169060200190929190505050610b1b565b604051808273ffffffffffffffffffffffffffffffffffffffff1673ffffffffffffffffffffffffffffffffffffffff16815260200191505060405180910390f35b61049b6004803603602081101561046f57600080fd5b81019080803573ffffffffffffffffffffffffffffffffffffffff169060200190929190505050610b89565b604051808215151515815260200191505060405180910390f35b6104e1600480360360208110156104cb57600080fd5b8101908080359060200190929190505050610f42565b604051808273ffffffffffffffffffffffffffffffffffffffff1673ffffffffffffffffffffffffffffffffffffffff16815260200191505060405180910390f35b6105656004803603602081101561053957600080fd5b81019080803573ffffffffffffffffffffffffffffffffffffffff169060200190929190505050610f75565b6040518082815260200191505060405180910390f35b610583610fbe565b6040518082815260200191505060405180910390f35b6105a1610fc4565b604051808215151515815260200191505060405180910390f35b6105e7600480360360208110156105d157600080fd5b810190808035906020019092919050505061101d565b6040518082815260200191505060405180910390f35b61060561140a565b6040518082815260200191505060405180910390f35b61065d6004803603602081101561063157600080fd5b81019080803573ffffffffffffffffffffffffffffffffffffffff169060200190929190505050611410565b6040518082815260200191505060405180910390f35b6106b56004803603602081101561068957600080fd5b81019080803573ffffffffffffffffffffffffffffffffffffffff169060200190929190505050611428565b005b6106ed600480360360408110156106cd57600080fd5b810190808035906020019092919080359060200190929190505050611505565b604051808215151515815260200191505060405180910390f35b61070f611987565b604051808273ffffffffffffffffffffffffffffffffffffffff1673ffffffffffffffffffffffffffffffffffffffff16815260200191505060405180910390f35b61079d6004803603604081101561076757600080fd5b81019080803573ffffffffffffffffffffffffffffffffffffffff169060200190929190803590602001909291905050506119ad565b604051808215151515815260200191505060405180910390f35b6107bf6121fd565b604051808273ffffffffffffffffffffffffffffffffffffffff1673ffffffffffffffffffffffffffffffffffffffff16815260200191505060405180910390f35b6108436004803603602081101561081757600080fd5b81019080803573ffffffffffffffffffffffffffffffffffffffff169060200190929190505050612222565b604051808273ffffffffffffffffffffffffffffffffffffffff1673ffffffffffffffffffffffffffffffffffffffff16815260200191505060405180910390f35b6108b16004803603602081101561089b57600080fd5b8101908080359060200190929190505050612255565b6040518082815260200191505060405180910390f35b610909600480360360208110156108dd57600080fd5b81019080803573ffffffffffffffffffffffffffffffffffffffff1690602001909291905050506123b5565b604051808215151515815260200191505060405180910390f35b61092b612c47565b604051808273ffffffffffffffffffffffffffffffffffffffff1673ffffffffffffffffffffffffffffffffffffffff16815260200191505060405180910390f35b60085481565b6109a1336000357fffffffff0000000000000000000000000000000000000000000000000000000016612c6d565b15156109a957fe5b80600160006101000a81548173ffffffffffffffffffffffffffffffffffffffff021916908373ffffffffffffffffffffffffffffffffffffffff160217905550600160009054906101000a900473ffffffffffffffffffffffffffffffffffffffff1673ffffffffffffffffffffffffffffffffffffffff167fce241d7ca1f669fee44b6fc00b8eba2df3bb514eed0f6f668f8f89096e81ed9460405160405180910390a250565b600e6020528060005260406000206000915090505481565b600f6020528060005260406000206000915090505481565b60065481565b600c6020528060005260406000206000915090505481565b600080610aac8361101d565b905080600a6000858152602001908152602001600020819055507fa9a26360ded17bbe6528a5ec42df34cc22964927204d7a69575e12c6839d426c8382604051808381526020018281526020019250505060405180910390a16001915050919050565b60095481565b60045481565b600080600d60008473ffffffffffffffffffffffffffffffffffffffff1673ffffffffffffffffffffffffffffffffffffffff16815260200190815260200160002060009054906101000a900473ffffffffffffffffffffffffffffffffffffffff16905080915050919050565b6000610b93610fc4565b1515610c07576040517f08c379a000000000000000000000000000000000000000000000000000000000815260040180806020018281038252600f8152602001807f4e6f74207573696e6720746f6b656e000000000000000000000000000000000081525060200191505060405180910390fd5b8173ffffffffffffffffffffffffffffffffffffffff163373ffffffffffffffffffffffffffffffffffffffff161480610ccb57508173ffffffffffffffffffffffffffffffffffffffff16600d60003373ffffffffffffffffffffffffffffffffffffffff1673ffffffffffffffffffffffffffffffffffffffff16815260200190815260200160002060009054906101000a900473ffffffffffffffffffffffffffffffffffffffff1673ffffffffffffffffffffffffffffffffffffffff16145b1515610d3f576040517f08c379a000000000000000000000000000000000000000000000000000000000815260040180806020018281038252600c8152602001807f556e617574686f7269736564000000000000000000000000000000000000000081525060200191505060405180910390fd5b6000600760009054906101000a900473ffffffffffffffffffffffffffffffffffffffff1673ffffffffffffffffffffffffffffffffffffffff1663b48ea725846040518263ffffffff167c0100000000000000000000000000000000000000000000000000000000028152600401808273ffffffffffffffffffffffffffffffffffffffff1673ffffffffffffffffffffffffffffffffffffffff168152602001915050602060405180830381600087803b158015610dfe57600080fd5b505af1158015610e12573d6000803e3d6000fd5b505050506040513d6020811015610e2857600080fd5b81019080805190602001909291905050509050600760009054906101000a900473ffffffffffffffffffffffffffffffffffffffff1673ffffffffffffffffffffffffffffffffffffffff1663a9059cbb33836040518363ffffffff167c0100000000000000000000000000000000000000000000000000000000028152600401808373ffffffffffffffffffffffffffffffffffffffff1673ffffffffffffffffffffffffffffffffffffffff16815260200182815260200192505050602060405180830381600087803b158015610f0057600080fd5b505af1158015610f14573d6000803e3d6000fd5b505050506040513d6020811015610f2a57600080fd5b81019080805190602001909291905050505050919050565b600b6020528060005260406000206000915054906101000a900473ffffffffffffffffffffffffffffffffffffffff1681565b6000600f60008373ffffffffffffffffffffffffffffffffffffffff1673ffffffffffffffffffffffffffffffffffffffff168152602001908152602001600020549050919050565b60055481565b60008073ffffffffffffffffffffffffffffffffffffffff16600760009054906101000a900473ffffffffffffffffffffffffffffffffffffffff1673ffffffffffffffffffffffffffffffffffffffff161415905090565b600060606001600554036040519080825280602002602001820160405280156110555781602001602082028038833980820191505090505b50905060008090506000600190505b6005548110156112cd57600073ffffffffffffffffffffffffffffffffffffffff16600b600083815260200190815260200160002060009054906101000a900473ffffffffffffffffffffffffffffffffffffffff1673ffffffffffffffffffffffffffffffffffffffff161415156112c0576000600b600083815260200190815260200160002060009054906101000a900473ffffffffffffffffffffffffffffffffffffffff1673ffffffffffffffffffffffffffffffffffffffff1663ed2e5a97876040518263ffffffff167c01000000000000000000000000000000000000000000000000000000000281526004018082815260200191505060206040518083038186803b15801561117957600080fd5b505afa15801561118d573d6000803e3d6000fd5b505050506040513d60208110156111a357600080fd5b8101908080519060200190929190505050905060008111156112be5760008314806111e8575083600184038151811015156111da57fe5b906020019060200201518110155b1561120f578084848151811015156111fc57fe5b90602001906020020181815250506112b5565b60008090505b848181518110151561122357fe5b9060200190602002015182101515611242578080600101915050611215565b60008490505b8181111561129557856001820381518110151561126157fe5b90602001906020020151868281518110151561127957fe5b9060200190602002018181525050808060019003915050611248565b508185828151811015156112a557fe5b9060200190602002018181525050505b82806001019350505b505b8080600101915050611064565b506006548110151515611348576040517f08c379a00000000000000000000000000000000000000000000000000000000081526004018080602001828103825260178152602001807f4e6f7420656e6f7567682061637469766520666565647300000000000000000081525060200191505060405180910390fd5b60008060028381151561135757fe5b0614156113d557600083600160028581151561136f57fe5b040381518110151561137d57fe5b90602001906020020151905060008460028581151561139857fe5b048151811015156113a557fe5b9060200190602002015190506002818115156113bd57fe5b046002838115156113ca57fe5b0401925050506113ff565b826002600184038115156113e557fe5b048151811015156113f257fe5b9060200190602002015190505b809350505050919050565b60035481565b60106020528060005260406000206000915090505481565b611456336000357fffffffff0000000000000000000000000000000000000000000000000000000016612c6d565b151561145e57fe5b806000806101000a81548173ffffffffffffffffffffffffffffffffffffffff021916908373ffffffffffffffffffffffffffffffffffffffff1602179055506000809054906101000a900473ffffffffffffffffffffffffffffffffffffffff1673ffffffffffffffffffffffffffffffffffffffff167f1abebea81bfa2637f28358c371278fb15ede7ea8dd28d2e03b112ff6d936ada460405160405180910390a250565b600042601060003373ffffffffffffffffffffffffffffffffffffffff1673ffffffffffffffffffffffffffffffffffffffff168152602001908152602001600020541015156115bd576040517f08c379a00000000000000000000000000000000000000000000000000000000081526004018080602001828103825260128152602001807f416c72656164792073756273637269626564000000000000000000000000000081525060200191505060405180910390fd5b60085483141515611636576040517f08c379a000000000000000000000000000000000000000000000000000000000815260040180806020018281038252601b8152602001807f496e76616c696420737562736372696274696f6e20616d6f756e74000000000081525060200191505060405180910390fd5b600760009054906101000a900473ffffffffffffffffffffffffffffffffffffffff1673ffffffffffffffffffffffffffffffffffffffff1663532017a333856040518363ffffffff167c0100000000000000000000000000000000000000000000000000000000028152600401808373ffffffffffffffffffffffffffffffffffffffff1673ffffffffffffffffffffffffffffffffffffffff16815260200182815260200192505050602060405180830381600087803b1580156116fb57600080fd5b505af115801561170f573d6000803e3d6000fd5b505050506040513d602081101561172557600080fd5b810190808051906020019092919050505050600760009054906101000a900473ffffffffffffffffffffffffffffffffffffffff1673ffffffffffffffffffffffffffffffffffffffff166323b872dd3330866040518463ffffffff167c0100000000000000000000000000000000000000000000000000000000028152600401808473ffffffffffffffffffffffffffffffffffffffff1673ffffffffffffffffffffffffffffffffffffffff1681526020018373ffffffffffffffffffffffffffffffffffffffff1673ffffffffffffffffffffffffffffffffffffffff1681526020018281526020019350505050602060405180830381600087803b15801561183057600080fd5b505af1158015611844573d6000803e3d6000fd5b505050506040513d602081101561185a57600080fd5b81019080805190602001909291905050505081601060003373ffffffffffffffffffffffffffffffffffffffff1673ffffffffffffffffffffffffffffffffffffffff16815260200190815260200160002081905550600760009054906101000a900473ffffffffffffffffffffffffffffffffffffffff1673ffffffffffffffffffffffffffffffffffffffff1663f2675e35846040518263ffffffff167c010000000000000000000000000000000000000000000000000000000002815260040180828152602001915050602060405180830381600087803b15801561194157600080fd5b505af1158015611955573d6000803e3d6000fd5b505050506040513d602081101561196b57600080fd5b8101908080519060200190929190505050506001905092915050565b600160009054906101000a900473ffffffffffffffffffffffffffffffffffffffff1681565b600080600c60008573ffffffffffffffffffffffffffffffffffffffff1673ffffffffffffffffffffffffffffffffffffffff16815260200190815260200160002054141515611a65576040517f08c379a000000000000000000000000000000000000000000000000000000000815260040180806020018281038252601a8152602001807f43616e2774207374616b65206d6f7265207468616e206f6e636500000000000081525060200191505060405180910390fd5b600073ffffffffffffffffffffffffffffffffffffffff16600d60003373ffffffffffffffffffffffffffffffffffffffff1673ffffffffffffffffffffffffffffffffffffffff16815260200190815260200160002060009054906101000a900473ffffffffffffffffffffffffffffffffffffffff1673ffffffffffffffffffffffffffffffffffffffff16141515611b68576040517f08c379a000000000000000000000000000000000000000000000000000000000815260040180806020018281038252601a8152602001807f43616e2774207374616b65206d6f7265207468616e206f6e636500000000000081525060200191505060405180910390fd5b60045482141515611be1576040517f08c379a00000000000000000000000000000000000000000000000000000000081526004018080602001828103825260128152602001807f496e76616c6964207374616b652073697a65000000000000000000000000000081525060200191505060405180910390fd5b611be9610fc4565b1561208d57600454600760009054906101000a900473ffffffffffffffffffffffffffffffffffffffff1673ffffffffffffffffffffffffffffffffffffffff166370a08231336040518263ffffffff167c0100000000000000000000000000000000000000000000000000000000028152600401808273ffffffffffffffffffffffffffffffffffffffff1673ffffffffffffffffffffffffffffffffffffffff16815260200191505060206040518083038186803b158015611cac57600080fd5b505afa158015611cc0573d6000803e3d6000fd5b505050506040513d6020811015611cd657600080fd5b810190808051906020019092919050505010151515611d5d576040517f08c379a00000000000000000000000000000000000000000000000000000000081526004018080602001828103825260148152602001807f696e73756666696369656e742062616c616e636500000000000000000000000081525060200191505060405180910390fd5b600760009054906101000a900473ffffffffffffffffffffffffffffffffffffffff1673ffffffffffffffffffffffffffffffffffffffff1663532017a333846040518363ffffffff167c0100000000000000000000000000000000000000000000000000000000028152600401808373ffffffffffffffffffffffffffffffffffffffff1673ffffffffffffffffffffffffffffffffffffffff16815260200182815260200192505050602060405180830381600087803b158015611e2257600080fd5b505af1158015611e36573d6000803e3d6000fd5b505050506040513d6020811015611e4c57600080fd5b810190808051906020019092919050505050600760009054906101000a900473ffffffffffffffffffffffffffffffffffffffff1673ffffffffffffffffffffffffffffffffffffffff166323b872dd3330856040518463ffffffff167c0100000000000000000000000000000000000000000000000000000000028152600401808473ffffffffffffffffffffffffffffffffffffffff1673ffffffffffffffffffffffffffffffffffffffff1681526020018373ffffffffffffffffffffffffffffffffffffffff1673ffffffffffffffffffffffffffffffffffffffff1681526020018281526020019350505050602060405180830381600087803b158015611f5757600080fd5b505af1158015611f6b573d6000803e3d6000fd5b505050506040513d6020811015611f8157600080fd5b810190808051906020019092919050505050600760009054906101000a900473ffffffffffffffffffffffffffffffffffffffff1673ffffffffffffffffffffffffffffffffffffffff1663f3982e5e846040518263ffffffff167c0100000000000000000000000000000000000000000000000000000000028152600401808273ffffffffffffffffffffffffffffffffffffffff1673ffffffffffffffffffffffffffffffffffffffff168152602001915050602060405180830381600087803b15801561205057600080fd5b505af1158015612064573d6000803e3d6000fd5b505050506040513d602081101561207a57600080fd5b8101908080519060200190929190505050505b81600f60008573ffffffffffffffffffffffffffffffffffffffff1673ffffffffffffffffffffffffffffffffffffffff1681526020019081526020016000208190555082600d60003373ffffffffffffffffffffffffffffffffffffffff1673ffffffffffffffffffffffffffffffffffffffff16815260200190815260200160002060006101000a81548173ffffffffffffffffffffffffffffffffffffffff021916908373ffffffffffffffffffffffffffffffffffffffff16021790555042600e60008573ffffffffffffffffffffffffffffffffffffffff1673ffffffffffffffffffffffffffffffffffffffff1681526020019081526020016000208190555061219c83612ee2565b508273ffffffffffffffffffffffffffffffffffffffff167f1449c6dd7851abc30abf37f57715f492010519147cc2652fbc38202c18a6ee908384604051808381526020018281526020019250505060405180910390a26001905092915050565b6000809054906101000a900473ffffffffffffffffffffffffffffffffffffffff1681565b600d6020528060005260406000206000915054906101000a900473ffffffffffffffffffffffffffffffffffffffff1681565b600042601060003373ffffffffffffffffffffffffffffffffffffffff1673ffffffffffffffffffffffffffffffffffffffff168152602001908152602001600020541015151561230e576040517f08c379a000000000000000000000000000000000000000000000000000000000815260040180806020018281038252600f8152602001807f4e6f74207375627363726962656421000000000000000000000000000000000081525060200191505060405180910390fd5b6000600a6000848152602001908152602001600020541415151561239a576040517f08c379a000000000000000000000000000000000000000000000000000000000815260040180806020018281038252601c8152602001807f4d656469616e697a65723a2056616c7565206973206e6f74207365740000000081525060200191505060405180910390fd5b600a6000838152602001908152602001600020549050919050565b60006123bf610fc4565b1515612433576040517f08c379a000000000000000000000000000000000000000000000000000000000815260040180806020018281038252600f8152602001807f4e6f74207573696e6720746f6b656e000000000000000000000000000000000081525060200191505060405180910390fd5b8173ffffffffffffffffffffffffffffffffffffffff163373ffffffffffffffffffffffffffffffffffffffff1614806124f757508173ffffffffffffffffffffffffffffffffffffffff16600d60003373ffffffffffffffffffffffffffffffffffffffff1673ffffffffffffffffffffffffffffffffffffffff16815260200190815260200160002060009054906101000a900473ffffffffffffffffffffffffffffffffffffffff1673ffffffffffffffffffffffffffffffffffffffff16145b151561256b576040517f08c379a000000000000000000000000000000000000000000000000000000000815260040180806020018281038252600c8152602001807f556e617574686f7269736564000000000000000000000000000000000000000081525060200191505060405180910390fd5b60006126b6600f60008573ffffffffffffffffffffffffffffffffffffffff1673ffffffffffffffffffffffffffffffffffffffff16815260200190815260200160002054600760009054906101000a900473ffffffffffffffffffffffffffffffffffffffff1673ffffffffffffffffffffffffffffffffffffffff1663b48ea725866040518263ffffffff167c0100000000000000000000000000000000000000000000000000000000028152600401808273ffffffffffffffffffffffffffffffffffffffff1673ffffffffffffffffffffffffffffffffffffffff168152602001915050602060405180830381600087803b15801561266d57600080fd5b505af1158015612681573d6000803e3d6000fd5b505050506040513d602081101561269757600080fd5b8101908080519060200190929190505050612f0c90919063ffffffff16565b905080600760009054906101000a900473ffffffffffffffffffffffffffffffffffffffff1673ffffffffffffffffffffffffffffffffffffffff166370a08231306040518263ffffffff167c0100000000000000000000000000000000000000000000000000000000028152600401808273ffffffffffffffffffffffffffffffffffffffff1673ffffffffffffffffffffffffffffffffffffffff16815260200191505060206040518083038186803b15801561277457600080fd5b505afa158015612788573d6000803e3d6000fd5b505050506040513d602081101561279e57600080fd5b810190808051906020019092919050505010151515612825576040517f08c379a000000000000000000000000000000000000000000000000000000000815260040180806020018281038252601f8152602001807f416d6f756e74206578636565647320636f6e74726163742062616c616e63650081525060200191505060405180910390fd5b600354600e60008573ffffffffffffffffffffffffffffffffffffffff1673ffffffffffffffffffffffffffffffffffffffff168152602001908152602001600020540142101515156128e0576040517f08c379a00000000000000000000000000000000000000000000000000000000081526004018080602001828103825260128152602001807f43616e277420756e7374616b65206e6f772e000000000000000000000000000081525060200191505060405180910390fd5b600760009054906101000a900473ffffffffffffffffffffffffffffffffffffffff1673ffffffffffffffffffffffffffffffffffffffff166310242590846040518263ffffffff167c0100000000000000000000000000000000000000000000000000000000028152600401808273ffffffffffffffffffffffffffffffffffffffff1673ffffffffffffffffffffffffffffffffffffffff168152602001915050602060405180830381600087803b15801561299d57600080fd5b505af11580156129b1573d6000803e3d6000fd5b505050506040513d60208110156129c757600080fd5b8101908080519060200190929190505050506000600f60008573ffffffffffffffffffffffffffffffffffffffff1673ffffffffffffffffffffffffffffffffffffffff168152602001908152602001600020819055506000600d60003373ffffffffffffffffffffffffffffffffffffffff1673ffffffffffffffffffffffffffffffffffffffff16815260200190815260200160002060006101000a81548173ffffffffffffffffffffffffffffffffffffffff021916908373ffffffffffffffffffffffffffffffffffffffff160217905550600760009054906101000a900473ffffffffffffffffffffffffffffffffffffffff1673ffffffffffffffffffffffffffffffffffffffff1663a9059cbb33836040518363ffffffff167c0100000000000000000000000000000000000000000000000000000000028152600401808373ffffffffffffffffffffffffffffffffffffffff1673ffffffffffffffffffffffffffffffffffffffff16815260200182815260200192505050602060405180830381600087803b158015612b6257600080fd5b505af1158015612b76573d6000803e3d6000fd5b505050506040513d6020811015612b8c57600080fd5b810190808051906020019092919050505050612ba783612f2d565b508273ffffffffffffffffffffffffffffffffffffffff167f7fc4727e062e336010f2c282598ef5f14facb3de68cf8195c2f23e1454b2b74e82600f60008773ffffffffffffffffffffffffffffffffffffffff1673ffffffffffffffffffffffffffffffffffffffff16815260200190815260200160002054604051808381526020018281526020019250505060405180910390a26001915050919050565b600760009054906101000a900473ffffffffffffffffffffffffffffffffffffffff1681565b60003073ffffffffffffffffffffffffffffffffffffffff168373ffffffffffffffffffffffffffffffffffffffff161415612cac5760019050612edc565b600160009054906101000a900473ffffffffffffffffffffffffffffffffffffffff1673ffffffffffffffffffffffffffffffffffffffff168373ffffffffffffffffffffffffffffffffffffffff161415612d0b5760019050612edc565b600073ffffffffffffffffffffffffffffffffffffffff166000809054906101000a900473ffffffffffffffffffffffffffffffffffffffff1673ffffffffffffffffffffffffffffffffffffffff161415612d6a5760009050612edc565b6000809054906101000a900473ffffffffffffffffffffffffffffffffffffffff1673ffffffffffffffffffffffffffffffffffffffff1663b70096138430856040518463ffffffff167c0100000000000000000000000000000000000000000000000000000000028152600401808473ffffffffffffffffffffffffffffffffffffffff1673ffffffffffffffffffffffffffffffffffffffff1681526020018373ffffffffffffffffffffffffffffffffffffffff1673ffffffffffffffffffffffffffffffffffffffff168152602001827bffffffffffffffffffffffffffffffffffffffffffffffffffffffff19167bffffffffffffffffffffffffffffffffffffffffffffffffffffffff19168152602001935050505060206040518083038186803b158015612e9e57600080fd5b505afa158015612eb2573d6000803e3d6000fd5b505050506040513d6020811015612ec857600080fd5b810190808051906020019092919050505090505b92915050565b6000612ef060055483612f87565b5060056000815480929190600101919050555060019050919050565b6000808284019050838110151515612f2357600080fd5b8091505092915050565b600080600c60008473ffffffffffffffffffffffffffffffffffffffff1673ffffffffffffffffffffffffffffffffffffffff168152602001908152602001600020549050612f7c818461313c565b506001915050919050565b60008083111515612fe3576040517f08c379a00000000000000000000000000000000000000000000000000000000081526004018080602001828103825260238152602001806132ce6023913960400191505060405180910390fd5b6000600c60008473ffffffffffffffffffffffffffffffffffffffff1673ffffffffffffffffffffffffffffffffffffffff1681526020019081526020016000205414151561303157600080fd5b82600c60008473ffffffffffffffffffffffffffffffffffffffff1673ffffffffffffffffffffffffffffffffffffffff1681526020019081526020016000208190555081600b600085815260200190815260200160002060006101000a81548173ffffffffffffffffffffffffffffffffffffffff021916908373ffffffffffffffffffffffffffffffffffffffff1602179055507fcb9c5cab7a629e9e21f21c2e7feda9eb584ae198580ceaf18fb93558a8acd4e58383604051808381526020018273ffffffffffffffffffffffffffffffffffffffff1673ffffffffffffffffffffffffffffffffffffffff1681526020019250505060405180910390a16001905092915050565b600060026005541480613153575060016005540383145b1561316857613162838361322a565b5061320d565b613172838361322a565b506000600b6000600160055403815260200190815260200160002060009054906101000a900473ffffffffffffffffffffffffffffffffffffffff1690506000600c60008373ffffffffffffffffffffffffffffffffffffffff1673ffffffffffffffffffffffffffffffffffffffff1681526020019081526020016000205490506131fe818361322a565b506132098583612f87565b5050505b600560008154809291906001900391905055506001905092915050565b600080600c60008473ffffffffffffffffffffffffffffffffffffffff1673ffffffffffffffffffffffffffffffffffffffff168152602001908152602001600020819055506000600b600085815260200190815260200160002060006101000a81548173ffffffffffffffffffffffffffffffffffffffff021916908373ffffffffffffffffffffffffffffffffffffffff160217905550600190509291505056fe506f736974696f6e206d757374206265206120706f73697469766520696e7465676572a165627a7a72305820990a19f6af66db3aa36bc22f3e2ac405aa2fb31d2d8ffeaa09e7dcf9ccfebfa00029",
  "source": "pragma solidity ^0.5.2;\n\nimport \"openzeppelin-solidity/contracts/token/ERC20/ERC20.sol\";\nimport \"openzeppelin-solidity/contracts/math/SafeMath.sol\";\n\nimport \"./thing.sol\";\nimport \"./SimpleStakeInterface.sol\";\n\ninterface PriceFeed {\n    function read(uint _marketId) external view returns (uint);\n}\n\n\ncontract Rewards {\n    function addMiner(address _minter) external returns (bool);\n    function removeMiner(address _minter) external returns (bool);\n    function approveFor(address owner, uint256 value) public returns (bool);\n    function updateRMSub(uint256 _amount) public returns (bool);\n    function computeRewards(address _source) public returns (uint256);\n}\n\n\ncontract Medianizer is DSThing, SimpleStakeInterface {\n\n    using SafeMath for uint256;\n\n    event LogValue(uint marketId, uint val);\n    event MinBlocksUpdated(uint newValue);\n    event Staked(address indexed user, uint256 amount, uint256 total);\n    event Unstaked(address indexed user, uint256 amount, uint256 total);\n    event FeedSet(uint pos, address feed);\n    event IsSub (uint256 expiryTime, uint256 blockNow);\n    event Subscribed(address indexed user, uint256 expiryTime, uint256 amountPaid);\n\n    uint public minStakeDuration = 0;\n    uint public stakeSize = 0; // Stake size in Wei. Note: this is token agnostic.\n    uint public next = 1;\n    uint public myn = 1;\n    address public token;\n    uint256 public subscribeFee = 10000000000000000000; //@note: 10 tokens, real application 10K tokens\n    uint256 public subBlockDuration = 100;  // @note: which interval of blocks that sub lasts for\n\n    mapping (uint => uint) private values;\n    mapping (uint => address) public feeds; // int ID => feed address\n    mapping (address => uint) public indexes; // feed address => int ID\n    mapping (address => address) public ownerToFeed; // msg.sender => feedAddress\n    mapping (address => uint) public stakeTime; // feed address => timestamp\n    mapping (address => uint) public stakesFor; // feed address => stake amount (accounting)\n    mapping(address => uint256) public expiryTimes;\n\n    modifier unsubscribed() {\n        require(expiryTimes[msg.sender] < now, \"Already subscribed\");\n        _;\n    }\n\n    modifier subscribed() {\n        require(expiryTimes[msg.sender] >= now, \"Not subscribed!\");\n        _;\n    }\n\n    constructor(uint _minStakeDuration, address _token, uint _stakeSize) public {\n        minStakeDuration = _minStakeDuration;\n        emit MinBlocksUpdated(_minStakeDuration);\n        token = _token;\n        stakeSize = _stakeSize;\n    }\n\n    /** USER INTERFACE Functions */\n\n    /**\n     * @dev function to poke the medianizer by price feed to calculate median\n     */\n    function poke(uint _marketId) external returns (bool) {\n        uint value = compute(_marketId);\n        values[_marketId] = value;\n        emit LogValue(_marketId, value);\n        return true;\n    }\n    \n    /**\n     * @dev function to check price feed owner\n     * @param _address is owner address\n     * @return price feed address related to owner\n     */\n    function getOwnerToFeed(address _address) public view returns (address) {\n        address pfAddress = ownerToFeed[_address];\n        return pfAddress;\n    }\n\n    /**\n     * @dev function to check if token address = address(0)\n     */\n    function usesYBT() public view returns (bool) {\n        return token != address(0);\n    }\n\n\n    function withdrawRewards(address _user) public returns (bool) {\n        require(usesYBT(), \"Not using token\");\n        require(msg.sender == _user || ownerToFeed[msg.sender] == _user, \"Unauthorised\");\n        uint256 _amountToReturn = Rewards(token).computeRewards(_user);\n        ERC20(token).transfer(msg.sender, _amountToReturn);\n    }\n\n    /** USER INTERFACE Functions */\n\n\n    /** STAKING Functions */\n\n    /**\n     * @dev function to stake a price feed by an owner\n     */\n    function stake(address user, uint256 amount) external returns (bool) {\n        require(indexes[user] == 0, \"Can't stake more than once\");\n        require(ownerToFeed[msg.sender] == address(0), \"Can't stake more than once\");\n        require(amount == stakeSize, \"Invalid stake size\");\n        if (usesYBT()) {\n            require(ERC20(token).balanceOf(msg.sender) >= stakeSize, \"insufficient balance\");\n            Rewards(token).approveFor(msg.sender, amount);\n            ERC20(token).transferFrom(msg.sender, address(this), amount);\n            Rewards(token).addMiner(user);\n        }\n        stakesFor[user] = amount;\n        ownerToFeed[msg.sender] = user;\n        stakeTime[user] = block.timestamp;\n        set(user);\n        emit Staked(user, amount, amount);\n        return true;\n    }\n \n    /**\n     * @dev function to unstake a price feed by an owner\n     */\n    function unstake(address _user) external returns (bool) {\n        require(usesYBT(), \"Not using token\");\n        require(msg.sender == _user || ownerToFeed[msg.sender] == _user, \"Unauthorised\");\n        uint256 _amountToReturn = (Rewards(token).computeRewards(_user)).add(stakesFor[_user]);\n        require(ERC20(token).balanceOf(address(this)) >= _amountToReturn, \"Amount exceeds contract balance\");\n        require(block.timestamp >= (stakeTime[_user] + minStakeDuration), \"Can't unstake now.\");\n        Rewards(token).removeMiner(_user);\n        stakesFor[_user] = 0;\n        ownerToFeed[msg.sender] = address(0);\n        ERC20(token).transfer(msg.sender, _amountToReturn);\n        unset(_user);\n        emit Unstaked(_user, _amountToReturn, stakesFor[_user]);\n        return true;\n    }\n\n    /**\n     * @notice Returns total staked for address.\n     * @param addr Address to check.\n     * @return amount of ethers staked.\n     */\n    function totalStakedFor(address addr) public view returns (uint256) {\n        return stakesFor[addr];\n    }\n\n    /** STAKING Functions */\n\n\n    /** SUBSCRIPTION Functions */\n\n    /**\n     * @dev Subscribe user to the system\n     * @param _amount of tokens paid to subscribe\n     * @param _expiry time is when the subscribe ends\n     */\n    function subscribe(uint256 _amount, uint256 _expiry) external unsubscribed returns (bool) {\n        require(_amount == subscribeFee, \"Invalid subscribtion amount\");\n        Rewards(token).approveFor(msg.sender, _amount);\n        ERC20(token).transferFrom(msg.sender, address(this), _amount);\n        expiryTimes[msg.sender] = _expiry;\n        Rewards(token).updateRMSub(_amount);\n        return true;\n    }\n\n    /**\n     * @dev Function that returns median to subscribers\n     * @param _marketId corresponding market's median is returned\n     */\n    function read(uint _marketId) external view subscribed returns (uint) {\n        require(values[_marketId] != 0, \"Medianizer: Value is not set\");\n        return values[_marketId];\n    }\n\n    /** SUBSCRIPTION Functions */    \n\n    /** DATA FILTER Functions */\n\n    function compute(uint _marketId) public view returns (uint) {\n        uint[] memory vals = new uint[](next - 1);\n        uint count = 0;\n        // Sort feed values\n        for (uint i = 1; i < next; i++) {\n            if (feeds[i] != address(0)) {\n                uint feedVal = PriceFeed(feeds[i]).read(_marketId);\n                if (feedVal > 0) {\n                    if (count == 0 || feedVal >= vals[count - 1]) {\n                        vals[count] = feedVal;\n                    } else {\n                        uint j = 0;\n                        while (feedVal >= vals[j]) {\n                            j++;\n                        }\n                        for (uint k = count; k > j; k--) {\n                            vals[k] = vals[k - 1];\n                        }\n                        vals[j] = feedVal;\n                    }\n                    count++;\n                }\n            }\n        }\n        require (count >= myn, \"Not enough active feeds\");\n        uint value;\n        if (count % 2 == 0) {\n            uint val1 = vals[(count / 2) - 1];\n            uint val2 = vals[count / 2];\n            value = (val1 / 2) + (val2 / 2);\n        } else {\n            value = vals[(count - 1) / 2];\n        }\n        return value;\n    }\n\n    function set(address feed) private returns (bool) {\n        set(next, feed);\n        next++;\n        return true;\n    }\n\n     function set(uint pos, address feed) private returns (bool) {\n        require(pos > 0, \"Position must be a positive integer\");\n        require(indexes[feed] == 0);\n        indexes[feed] = pos; //give the feed a number \n        feeds[pos] = feed; //put the address of the feed into that number\n        emit FeedSet(pos, feed);   \n        return true;\n    }\n\n\n    /**\n    - core logic\n    - get the old position from the pricefeed using indexes[pf] = old position\n    - if old position == next -1 ,  then just do cleanup\n    - if not then store the information of the last price feed + index \n    - dump thast into the old position\n    - clean up last one \n   \n     */\n\n   function unset(uint pos, address feed) private returns (bool) {\n       //edge case take care of a) 1 pf in the system b) when last of tries to unstake\n        if (next == 2 || pos == (next - 1)) {\n            //address pf = feeds[pos];   \n            feedCleanUp(pos, feed);\n        } else { \n            feedCleanUp(pos, feed);\n            //next will be assigned to new feed, so last feed = next-1\n            address lastFeed = feeds[next - 1];\n            uint lastIndex = indexes[lastFeed];\n            //clean up the last element in the mapping\n            feedCleanUp(lastIndex, lastFeed);\n            //replace in the empty slot in the mappings\n            set(pos, lastFeed);            \n        }\n        next--;\n        return true;\n    }\n\n    //@dev: used for cleaning up mapping values\n    function feedCleanUp(uint pos, address feed) private returns (bool) {\n       indexes[feed] = 0 ;\n       feeds[pos] = address(0); \n       return true;      \n    \n    }\n\n    // when unsetting we replace the target with the last\n    //   item in the mapping\n    function unset(address feed) private returns (bool) {\n        uint pos = indexes[feed];\n        unset(pos, feed);\n        return true;\n    }\n}\n",
  "sourcePath": "/Users/Poutine/Desktop/yesbit/shenyu/contracts/Medianizer.sol",
  "compiler": {
    "name": "solc",
    "version": "0.5.2+commit.1df8f40c.Emscripten.clang"
  },
  "schemaVersion": "3.0.2",
  "updatedAt": "2019-06-03T14:16:23.748Z",
  "devdoc": {
    "methods": {
      "getOwnerToFeed(address)": {
        "details": "function to check price feed owner",
        "params": {
          "_address": "is owner address"
        },
        "return": "price feed address related to owner"
      },
      "poke(uint256)": {
        "details": "function to poke the medianizer by price feed to calculate median"
      },
      "read(uint256)": {
        "details": "Function that returns median to subscribers",
        "params": {
          "_marketId": "corresponding market's median is returned"
        }
      },
      "stake(address,uint256)": {
        "details": "function to stake a price feed by an owner"
      },
      "subscribe(uint256,uint256)": {
        "details": "Subscribe user to the system",
        "params": {
          "_amount": "of tokens paid to subscribe",
          "_expiry": "time is when the subscribe ends"
        }
      },
      "totalStakedFor(address)": {
        "params": {
          "addr": "Address to check."
        },
        "return": "amount of ethers staked."
      },
      "unstake(address)": {
        "details": "function to unstake a price feed by an owner"
      },
      "usesYBT()": {
        "details": "function to check if token address = address(0)"
      }
    }
  },
  "userdoc": {
    "methods": {
      "compute(uint256)": {
        "notice": "DATA FILTER Functions "
      },
      "totalStakedFor(address)": {
        "notice": "Returns total staked for address."
      }
    }
  }
}