{
  "contractName": "PriceFeed",
  "abi": [
    {
      "constant": false,
      "inputs": [
        {
          "name": "owner_",
          "type": "address"
        }
      ],
      "name": "setOwner",
      "outputs": [],
      "payable": false,
      "stateMutability": "nonpayable",
      "type": "function"
    },
    {
      "constant": true,
      "inputs": [
        {
          "name": "",
          "type": "uint256"
        }
      ],
      "name": "values",
      "outputs": [
        {
          "name": "",
          "type": "uint256"
        }
      ],
      "payable": false,
      "stateMutability": "view",
      "type": "function"
    },
    {
      "constant": false,
      "inputs": [
        {
          "name": "authority_",
          "type": "address"
        }
      ],
      "name": "setAuthority",
      "outputs": [],
      "payable": false,
      "stateMutability": "nonpayable",
      "type": "function"
    },
    {
      "constant": true,
      "inputs": [],
      "name": "owner",
      "outputs": [
        {
          "name": "",
          "type": "address"
        }
      ],
      "payable": false,
      "stateMutability": "view",
      "type": "function"
    },
    {
      "constant": true,
      "inputs": [],
      "name": "authority",
      "outputs": [
        {
          "name": "",
          "type": "address"
        }
      ],
      "payable": false,
      "stateMutability": "view",
      "type": "function"
    },
    {
      "constant": true,
      "inputs": [
        {
          "name": "",
          "type": "uint256"
        }
      ],
      "name": "expiry",
      "outputs": [
        {
          "name": "",
          "type": "uint256"
        }
      ],
      "payable": false,
      "stateMutability": "view",
      "type": "function"
    },
    {
      "anonymous": false,
      "inputs": [
        {
          "indexed": false,
          "name": "market",
          "type": "uint256"
        },
        {
          "indexed": false,
          "name": "val",
          "type": "uint256"
        },
        {
          "indexed": false,
          "name": "expiry",
          "type": "uint256"
        },
        {
          "indexed": false,
          "name": "medianizer",
          "type": "address"
        }
      ],
      "name": "Post",
      "type": "event"
    },
    {
      "anonymous": true,
      "inputs": [
        {
          "indexed": true,
          "name": "sig",
          "type": "bytes4"
        },
        {
          "indexed": true,
          "name": "guy",
          "type": "address"
        },
        {
          "indexed": true,
          "name": "foo",
          "type": "bytes32"
        },
        {
          "indexed": true,
          "name": "bar",
          "type": "bytes32"
        },
        {
          "indexed": false,
          "name": "fax",
          "type": "bytes"
        }
      ],
      "name": "LogNote",
      "type": "event"
    },
    {
      "anonymous": false,
      "inputs": [
        {
          "indexed": true,
          "name": "authority",
          "type": "address"
        }
      ],
      "name": "LogSetAuthority",
      "type": "event"
    },
    {
      "anonymous": false,
      "inputs": [
        {
          "indexed": true,
          "name": "owner",
          "type": "address"
        }
      ],
      "name": "LogSetOwner",
      "type": "event"
    },
    {
      "constant": true,
      "inputs": [
        {
          "name": "_marketId",
          "type": "uint256"
        }
      ],
      "name": "read",
      "outputs": [
        {
          "name": "",
          "type": "uint256"
        }
      ],
      "payable": false,
      "stateMutability": "view",
      "type": "function"
    },
    {
      "constant": false,
      "inputs": [
        {
          "name": "_marketId",
          "type": "uint256"
        },
        {
          "name": "val_",
          "type": "uint256"
        },
        {
          "name": "expiry_",
          "type": "uint256"
        }
      ],
      "name": "poke",
      "outputs": [],
      "payable": false,
      "stateMutability": "nonpayable",
      "type": "function"
    },
    {
      "constant": false,
      "inputs": [
        {
          "name": "_marketId",
          "type": "uint256"
        },
        {
          "name": "val_",
          "type": "uint256"
        },
        {
          "name": "expiry_",
          "type": "uint256"
        },
        {
          "name": "med_",
          "type": "address"
        },
        {
          "name": "token_",
          "type": "address"
        }
      ],
      "name": "post",
      "outputs": [],
      "payable": false,
      "stateMutability": "nonpayable",
      "type": "function"
    }
  ],
  "bytecode": "0x6080604052670de0b6b3a7640000600260006101000a8154816fffffffffffffffffffffffffffffffff02191690836fffffffffffffffffffffffffffffffff1602179055506b033b2e3c9fd0803ce8000000600260106101000a8154816fffffffffffffffffffffffffffffffff02191690836fffffffffffffffffffffffffffffffff16021790555033600160006101000a81548173ffffffffffffffffffffffffffffffffffffffff021916908373ffffffffffffffffffffffffffffffffffffffff1602179055503373ffffffffffffffffffffffffffffffffffffffff167fce241d7ca1f669fee44b6fc00b8eba2df3bb514eed0f6f668f8f89096e81ed9460405160405180910390a2610d8b8061011d6000396000f3fe608060405234801561001057600080fd5b50600436106100b0576000357c0100000000000000000000000000000000000000000000000000000000900480638da5cb5b116100835780638da5cb5b146101c1578063904f47451461020b578063bf7e214f1461028d578063ed2e5a97146102d7578063f0940b2214610319576100b0565b806313af4035146100b55780634196af8b146100f95780635e383d211461013b5780637a9e5e4b1461017d575b600080fd5b6100f7600480360360208110156100cb57600080fd5b81019080803573ffffffffffffffffffffffffffffffffffffffff16906020019092919050505061035b565b005b6101396004803603606081101561010f57600080fd5b8101908080359060200190929190803590602001909291908035906020019092919050505061043a565b005b6101676004803603602081101561015157600080fd5b8101908080359060200190929190505050610554565b6040518082815260200191505060405180910390f35b6101bf6004803603602081101561019357600080fd5b81019080803573ffffffffffffffffffffffffffffffffffffffff16906020019092919050505061056c565b005b6101c9610649565b604051808273ffffffffffffffffffffffffffffffffffffffff1673ffffffffffffffffffffffffffffffffffffffff16815260200191505060405180910390f35b61028b600480360360a081101561022157600080fd5b81019080803590602001909291908035906020019092919080359060200190929190803573ffffffffffffffffffffffffffffffffffffffff169060200190929190803573ffffffffffffffffffffffffffffffffffffffff16906020019092919050505061066f565b005b610295610a6b565b604051808273ffffffffffffffffffffffffffffffffffffffff1673ffffffffffffffffffffffffffffffffffffffff16815260200191505060405180910390f35b610303600480360360208110156102ed57600080fd5b8101908080359060200190929190505050610a90565b6040518082815260200191505060405180910390f35b6103456004803603602081101561032f57600080fd5b8101908080359060200190929190505050610ad2565b6040518082815260200191505060405180910390f35b610389336000357fffffffff0000000000000000000000000000000000000000000000000000000016610aea565b151561039157fe5b80600160006101000a81548173ffffffffffffffffffffffffffffffffffffffff021916908373ffffffffffffffffffffffffffffffffffffffff160217905550600160009054906101000a900473ffffffffffffffffffffffffffffffffffffffff1673ffffffffffffffffffffffffffffffffffffffff167fce241d7ca1f669fee44b6fc00b8eba2df3bb514eed0f6f668f8f89096e81ed9460405160405180910390a250565b6000806004359150602435905080823373ffffffffffffffffffffffffffffffffffffffff166000357fffffffff00000000000000000000000000000000000000000000000000000000167bffffffffffffffffffffffffffffffffffffffffffffffffffffffff191660003660405180806020018281038252848482818152602001925080828437600081840152601f19601f820116905080830192505050935050505060405180910390a4610515336000357fffffffff0000000000000000000000000000000000000000000000000000000016610aea565b151561051d57fe5b8360036000878152602001908152602001600020819055508260046000878152602001908152602001600020819055505050505050565b60036020528060005260406000206000915090505481565b61059a336000357fffffffff0000000000000000000000000000000000000000000000000000000016610aea565b15156105a257fe5b806000806101000a81548173ffffffffffffffffffffffffffffffffffffffff021916908373ffffffffffffffffffffffffffffffffffffffff1602179055506000809054906101000a900473ffffffffffffffffffffffffffffffffffffffff1673ffffffffffffffffffffffffffffffffffffffff167f1abebea81bfa2637f28358c371278fb15ede7ea8dd28d2e03b112ff6d936ada460405160405180910390a250565b600160009054906101000a900473ffffffffffffffffffffffffffffffffffffffff1681565b6000806004359150602435905080823373ffffffffffffffffffffffffffffffffffffffff166000357fffffffff00000000000000000000000000000000000000000000000000000000167bffffffffffffffffffffffffffffffffffffffffffffffffffffffff191660003660405180806020018281038252848482818152602001925080828437600081840152601f19601f820116905080830192505050935050505060405180910390a461074a336000357fffffffff0000000000000000000000000000000000000000000000000000000016610aea565b151561075257fe5b42851115156107c9576040517f08c379a000000000000000000000000000000000000000000000000000000000815260040180806020018281038252601b8152602001807f4578706972792074696d657374616d702068617320706173736564000000000081525060200191505060405180910390fd5b8560036000898152602001908152602001600020819055508460046000898152602001908152602001600020819055508373ffffffffffffffffffffffffffffffffffffffff166332145f90886040518263ffffffff167c010000000000000000000000000000000000000000000000000000000002815260040180828152602001915050602060405180830381600087803b15801561086857600080fd5b505af115801561087c573d6000803e3d6000fd5b505050506040513d602081101561089257600080fd5b8101908080519060200190929190505050508373ffffffffffffffffffffffffffffffffffffffff166351b7ef0b6040518163ffffffff167c010000000000000000000000000000000000000000000000000000000002815260040160206040518083038186803b15801561090657600080fd5b505afa15801561091a573d6000803e3d6000fd5b505050506040513d602081101561093057600080fd5b8101908080519060200190929190505050156109e7578273ffffffffffffffffffffffffffffffffffffffff1663181783586040518163ffffffff167c0100000000000000000000000000000000000000000000000000000000028152600401602060405180830381600087803b1580156109aa57600080fd5b505af11580156109be573d6000803e3d6000fd5b505050506040513d60208110156109d457600080fd5b8101908080519060200190929190505050505b7f919d7cbaea71b915c4fec96e8106dd0ea7f30898be500144801b33acdf4b13e687878787604051808581526020018481526020018381526020018273ffffffffffffffffffffffffffffffffffffffff1673ffffffffffffffffffffffffffffffffffffffff16815260200194505050505060405180910390a150505050505050565b6000809054906101000a900473ffffffffffffffffffffffffffffffffffffffff1681565b60006004600083815260200190815260200160002054421015610ac85760036000838152602001908152602001600020549050610acd565b600090505b919050565b60046020528060005260406000206000915090505481565b60003073ffffffffffffffffffffffffffffffffffffffff168373ffffffffffffffffffffffffffffffffffffffff161415610b295760019050610d59565b600160009054906101000a900473ffffffffffffffffffffffffffffffffffffffff1673ffffffffffffffffffffffffffffffffffffffff168373ffffffffffffffffffffffffffffffffffffffff161415610b885760019050610d59565b600073ffffffffffffffffffffffffffffffffffffffff166000809054906101000a900473ffffffffffffffffffffffffffffffffffffffff1673ffffffffffffffffffffffffffffffffffffffff161415610be75760009050610d59565b6000809054906101000a900473ffffffffffffffffffffffffffffffffffffffff1673ffffffffffffffffffffffffffffffffffffffff1663b70096138430856040518463ffffffff167c0100000000000000000000000000000000000000000000000000000000028152600401808473ffffffffffffffffffffffffffffffffffffffff1673ffffffffffffffffffffffffffffffffffffffff1681526020018373ffffffffffffffffffffffffffffffffffffffff1673ffffffffffffffffffffffffffffffffffffffff168152602001827bffffffffffffffffffffffffffffffffffffffffffffffffffffffff19167bffffffffffffffffffffffffffffffffffffffffffffffffffffffff19168152602001935050505060206040518083038186803b158015610d1b57600080fd5b505afa158015610d2f573d6000803e3d6000fd5b505050506040513d6020811015610d4557600080fd5b810190808051906020019092919050505090505b9291505056fea165627a7a72305820762ebe634393306a9015ba2e0202bd62c109df064e5d2d6251d68076303279c10029",
  "source": "pragma solidity ^0.5.2;\n\nimport \"./thing.sol\";\n\n\ncontract IMedianizer {\n    function poke(uint _marketId) external returns (bool);\n    function usesYBT() public view returns (bool);\n}\n\ninterface Rewards {\n    function poke() external returns (bool);\n}\n\n\ncontract PriceFeed is DSThing {\n    event Post(\n        uint market,\n        uint val,\n        uint expiry,\n        address medianizer\n    );\n\n    mapping (uint => uint) public values;\n    mapping (uint => uint) public expiry;\n  \n    function read(uint _marketId) external view returns (uint) {\n        if (now < expiry[_marketId]) {\n            return values[_marketId];\n        } else {\n            return 0;\n        }\n    }\n\n    function poke(uint _marketId, uint val_, uint expiry_) external note auth {\n        values[_marketId] = val_;\n        expiry[_marketId] = expiry_;\n    }\n\n    function post(uint _marketId, uint val_, uint expiry_, address med_, address token_) external note auth {\n        require(expiry_ > now, \"Expiry timestamp has passed\");\n        values[_marketId] = val_;\n        expiry[_marketId] = expiry_;\n        IMedianizer(med_).poke(_marketId);\n        if (IMedianizer(med_).usesYBT()) {\n            Rewards(token_).poke();\n        }\n        emit Post(_marketId, val_, expiry_, address(med_));\n    }\n}\n",
  "sourcePath": "/Users/Poutine/Desktop/yesbit/shenyu/contracts/PriceFeed.sol",
  "compiler": {
    "name": "solc",
    "version": "0.5.2+commit.1df8f40c.Emscripten.clang"
  },
  "schemaVersion": "3.0.2",
  "updatedAt": "2019-06-03T14:13:47.644Z",
  "devdoc": {
    "methods": {}
  },
  "userdoc": {
    "methods": {}
  }
}