{
  "contractName": "Rewards",
  "abi": [
    {
      "constant": true,
      "inputs": [],
      "name": "name",
      "outputs": [
        {
          "name": "",
          "type": "string"
        }
      ],
      "payable": false,
      "stateMutability": "view",
      "type": "function",
      "signature": "0x06fdde03"
    },
    {
      "constant": true,
      "inputs": [],
      "name": "totalSources",
      "outputs": [
        {
          "name": "",
          "type": "uint256"
        }
      ],
      "payable": false,
      "stateMutability": "view",
      "type": "function",
      "signature": "0x094ca8a3"
    },
    {
      "constant": false,
      "inputs": [
        {
          "name": "spender",
          "type": "address"
        },
        {
          "name": "value",
          "type": "uint256"
        }
      ],
      "name": "approve",
      "outputs": [
        {
          "name": "",
          "type": "bool"
        }
      ],
      "payable": false,
      "stateMutability": "nonpayable",
      "type": "function",
      "signature": "0x095ea7b3"
    },
    {
      "constant": true,
      "inputs": [],
      "name": "totalSupply",
      "outputs": [
        {
          "name": "",
          "type": "uint256"
        }
      ],
      "payable": false,
      "stateMutability": "view",
      "type": "function",
      "signature": "0x18160ddd"
    },
    {
      "constant": false,
      "inputs": [
        {
          "name": "from",
          "type": "address"
        },
        {
          "name": "to",
          "type": "address"
        },
        {
          "name": "value",
          "type": "uint256"
        }
      ],
      "name": "transferFrom",
      "outputs": [
        {
          "name": "",
          "type": "bool"
        }
      ],
      "payable": false,
      "stateMutability": "nonpayable",
      "type": "function",
      "signature": "0x23b872dd"
    },
    {
      "constant": true,
      "inputs": [],
      "name": "pokeInterval",
      "outputs": [
        {
          "name": "",
          "type": "uint256"
        }
      ],
      "payable": false,
      "stateMutability": "view",
      "type": "function",
      "signature": "0x240951ec"
    },
    {
      "constant": true,
      "inputs": [],
      "name": "decimals",
      "outputs": [
        {
          "name": "",
          "type": "uint8"
        }
      ],
      "payable": false,
      "stateMutability": "view",
      "type": "function",
      "signature": "0x313ce567"
    },
    {
      "constant": false,
      "inputs": [
        {
          "name": "spender",
          "type": "address"
        },
        {
          "name": "addedValue",
          "type": "uint256"
        }
      ],
      "name": "increaseAllowance",
      "outputs": [
        {
          "name": "",
          "type": "bool"
        }
      ],
      "payable": false,
      "stateMutability": "nonpayable",
      "type": "function",
      "signature": "0x39509351"
    },
    {
      "constant": false,
      "inputs": [
        {
          "name": "to",
          "type": "address"
        },
        {
          "name": "value",
          "type": "uint256"
        }
      ],
      "name": "mint",
      "outputs": [
        {
          "name": "",
          "type": "bool"
        }
      ],
      "payable": false,
      "stateMutability": "nonpayable",
      "type": "function",
      "signature": "0x40c10f19"
    },
    {
      "constant": true,
      "inputs": [],
      "name": "tokenPerBlock",
      "outputs": [
        {
          "name": "",
          "type": "uint256"
        }
      ],
      "payable": false,
      "stateMutability": "view",
      "type": "function",
      "signature": "0x4198709a"
    },
    {
      "constant": true,
      "inputs": [],
      "name": "lastMintBlockNum",
      "outputs": [
        {
          "name": "",
          "type": "uint256"
        }
      ],
      "payable": false,
      "stateMutability": "view",
      "type": "function",
      "signature": "0x4927d72a"
    },
    {
      "constant": true,
      "inputs": [],
      "name": "_dataFilter",
      "outputs": [
        {
          "name": "",
          "type": "address"
        }
      ],
      "payable": false,
      "stateMutability": "view",
      "type": "function",
      "signature": "0x6c53b884"
    },
    {
      "constant": true,
      "inputs": [
        {
          "name": "owner",
          "type": "address"
        }
      ],
      "name": "balanceOf",
      "outputs": [
        {
          "name": "",
          "type": "uint256"
        }
      ],
      "payable": false,
      "stateMutability": "view",
      "type": "function",
      "signature": "0x70a08231"
    },
    {
      "constant": false,
      "inputs": [],
      "name": "renounceOwnership",
      "outputs": [],
      "payable": false,
      "stateMutability": "nonpayable",
      "type": "function",
      "signature": "0x715018a6"
    },
    {
      "constant": true,
      "inputs": [],
      "name": "blockSkip",
      "outputs": [
        {
          "name": "",
          "type": "uint256"
        }
      ],
      "payable": false,
      "stateMutability": "view",
      "type": "function",
      "signature": "0x75bf7a03"
    },
    {
      "constant": true,
      "inputs": [],
      "name": "owner",
      "outputs": [
        {
          "name": "",
          "type": "address"
        }
      ],
      "payable": false,
      "stateMutability": "view",
      "type": "function",
      "signature": "0x8da5cb5b"
    },
    {
      "constant": true,
      "inputs": [],
      "name": "isOwner",
      "outputs": [
        {
          "name": "",
          "type": "bool"
        }
      ],
      "payable": false,
      "stateMutability": "view",
      "type": "function",
      "signature": "0x8f32d59b"
    },
    {
      "constant": true,
      "inputs": [],
      "name": "symbol",
      "outputs": [
        {
          "name": "",
          "type": "string"
        }
      ],
      "payable": false,
      "stateMutability": "view",
      "type": "function",
      "signature": "0x95d89b41"
    },
    {
      "constant": false,
      "inputs": [
        {
          "name": "account",
          "type": "address"
        }
      ],
      "name": "addMinter",
      "outputs": [],
      "payable": false,
      "stateMutability": "nonpayable",
      "type": "function",
      "signature": "0x983b2d56"
    },
    {
      "constant": false,
      "inputs": [],
      "name": "renounceMinter",
      "outputs": [],
      "payable": false,
      "stateMutability": "nonpayable",
      "type": "function",
      "signature": "0x98650275"
    },
    {
      "constant": false,
      "inputs": [
        {
          "name": "spender",
          "type": "address"
        },
        {
          "name": "subtractedValue",
          "type": "uint256"
        }
      ],
      "name": "decreaseAllowance",
      "outputs": [
        {
          "name": "",
          "type": "bool"
        }
      ],
      "payable": false,
      "stateMutability": "nonpayable",
      "type": "function",
      "signature": "0xa457c2d7"
    },
    {
      "constant": true,
      "inputs": [
        {
          "name": "",
          "type": "address"
        }
      ],
      "name": "isSource",
      "outputs": [
        {
          "name": "",
          "type": "bool"
        }
      ],
      "payable": false,
      "stateMutability": "view",
      "type": "function",
      "signature": "0xa709fe9d"
    },
    {
      "constant": false,
      "inputs": [
        {
          "name": "to",
          "type": "address"
        },
        {
          "name": "value",
          "type": "uint256"
        }
      ],
      "name": "transfer",
      "outputs": [
        {
          "name": "",
          "type": "bool"
        }
      ],
      "payable": false,
      "stateMutability": "nonpayable",
      "type": "function",
      "signature": "0xa9059cbb"
    },
    {
      "constant": true,
      "inputs": [
        {
          "name": "account",
          "type": "address"
        }
      ],
      "name": "isMinter",
      "outputs": [
        {
          "name": "",
          "type": "bool"
        }
      ],
      "payable": false,
      "stateMutability": "view",
      "type": "function",
      "signature": "0xaa271e1a"
    },
    {
      "constant": true,
      "inputs": [
        {
          "name": "",
          "type": "address"
        }
      ],
      "name": "sources",
      "outputs": [
        {
          "name": "mask",
          "type": "uint256"
        },
        {
          "name": "lastPokeBlock",
          "type": "uint256"
        },
        {
          "name": "pokes",
          "type": "uint256"
        }
      ],
      "payable": false,
      "stateMutability": "view",
      "type": "function",
      "signature": "0xb750bdde"
    },
    {
      "constant": true,
      "inputs": [
        {
          "name": "owner",
          "type": "address"
        },
        {
          "name": "spender",
          "type": "address"
        }
      ],
      "name": "allowance",
      "outputs": [
        {
          "name": "",
          "type": "uint256"
        }
      ],
      "payable": false,
      "stateMutability": "view",
      "type": "function",
      "signature": "0xdd62ed3e"
    },
    {
      "constant": true,
      "inputs": [],
      "name": "RewardsMask",
      "outputs": [
        {
          "name": "",
          "type": "uint256"
        }
      ],
      "payable": false,
      "stateMutability": "view",
      "type": "function",
      "signature": "0xf1c65c41"
    },
    {
      "constant": false,
      "inputs": [
        {
          "name": "newOwner",
          "type": "address"
        }
      ],
      "name": "transferOwnership",
      "outputs": [],
      "payable": false,
      "stateMutability": "nonpayable",
      "type": "function",
      "signature": "0xf2fde38b"
    },
    {
      "inputs": [],
      "payable": false,
      "stateMutability": "nonpayable",
      "type": "constructor",
      "signature": "constructor"
    },
    {
      "anonymous": false,
      "inputs": [
        {
          "indexed": true,
          "name": "previousOwner",
          "type": "address"
        },
        {
          "indexed": true,
          "name": "newOwner",
          "type": "address"
        }
      ],
      "name": "OwnershipTransferred",
      "type": "event",
      "signature": "0x8be0079c531659141344cd1fd0a4f28419497f9722a3daafe3b4186f6b6457e0"
    },
    {
      "anonymous": false,
      "inputs": [
        {
          "indexed": true,
          "name": "account",
          "type": "address"
        }
      ],
      "name": "MinterAdded",
      "type": "event",
      "signature": "0x6ae172837ea30b801fbfcdd4108aa1d5bf8ff775444fd70256b44e6bf3dfc3f6"
    },
    {
      "anonymous": false,
      "inputs": [
        {
          "indexed": true,
          "name": "account",
          "type": "address"
        }
      ],
      "name": "MinterRemoved",
      "type": "event",
      "signature": "0xe94479a9f7e1952cc78f2d6baab678adc1b772d936c6583def489e524cb66692"
    },
    {
      "anonymous": false,
      "inputs": [
        {
          "indexed": true,
          "name": "from",
          "type": "address"
        },
        {
          "indexed": true,
          "name": "to",
          "type": "address"
        },
        {
          "indexed": false,
          "name": "value",
          "type": "uint256"
        }
      ],
      "name": "Transfer",
      "type": "event",
      "signature": "0xddf252ad1be2c89b69c2b068fc378daa952ba7f163c4a11628f55a4df523b3ef"
    },
    {
      "anonymous": false,
      "inputs": [
        {
          "indexed": true,
          "name": "owner",
          "type": "address"
        },
        {
          "indexed": true,
          "name": "spender",
          "type": "address"
        },
        {
          "indexed": false,
          "name": "value",
          "type": "uint256"
        }
      ],
      "name": "Approval",
      "type": "event",
      "signature": "0x8c5be1e5ebec7d5bd14f71427d1e84f3dd0314c0f7b2291e5b200ac8c7c3b925"
    },
    {
      "constant": false,
      "inputs": [
        {
          "name": "_df",
          "type": "address"
        }
      ],
      "name": "setDataFilter",
      "outputs": [],
      "payable": false,
      "stateMutability": "nonpayable",
      "type": "function",
      "signature": "0xc89139d7"
    },
    {
      "constant": false,
      "inputs": [],
      "name": "poke",
      "outputs": [
        {
          "name": "",
          "type": "bool"
        }
      ],
      "payable": false,
      "stateMutability": "nonpayable",
      "type": "function",
      "signature": "0x18178358"
    },
    {
      "constant": false,
      "inputs": [
        {
          "name": "_source",
          "type": "address"
        }
      ],
      "name": "addMiner",
      "outputs": [
        {
          "name": "",
          "type": "bool"
        }
      ],
      "payable": false,
      "stateMutability": "nonpayable",
      "type": "function",
      "signature": "0xf3982e5e"
    },
    {
      "constant": false,
      "inputs": [
        {
          "name": "_source",
          "type": "address"
        }
      ],
      "name": "removeMiner",
      "outputs": [
        {
          "name": "",
          "type": "bool"
        }
      ],
      "payable": false,
      "stateMutability": "nonpayable",
      "type": "function",
      "signature": "0x10242590"
    },
    {
      "constant": true,
      "inputs": [],
      "name": "willMint",
      "outputs": [
        {
          "name": "",
          "type": "bool"
        }
      ],
      "payable": false,
      "stateMutability": "view",
      "type": "function",
      "signature": "0xe815a1bb"
    },
    {
      "constant": false,
      "inputs": [
        {
          "name": "_amount",
          "type": "uint256"
        }
      ],
      "name": "updateRMSub",
      "outputs": [
        {
          "name": "",
          "type": "bool"
        }
      ],
      "payable": false,
      "stateMutability": "nonpayable",
      "type": "function",
      "signature": "0xf2675e35"
    },
    {
      "constant": false,
      "inputs": [
        {
          "name": "owner",
          "type": "address"
        },
        {
          "name": "value",
          "type": "uint256"
        }
      ],
      "name": "approveFor",
      "outputs": [
        {
          "name": "",
          "type": "bool"
        }
      ],
      "payable": false,
      "stateMutability": "nonpayable",
      "type": "function",
      "signature": "0x532017a3"
    },
    {
      "constant": false,
      "inputs": [
        {
          "name": "_source",
          "type": "address"
        }
      ],
      "name": "computeRewards",
      "outputs": [
        {
          "name": "",
          "type": "uint256"
        }
      ],
      "payable": false,
      "stateMutability": "nonpayable",
      "type": "function",
      "signature": "0xb48ea725"
    },
    {
      "constant": true,
      "inputs": [
        {
          "name": "_source",
          "type": "address"
        }
      ],
      "name": "getRewardsOf",
      "outputs": [
        {
          "name": "",
          "type": "uint256"
        }
      ],
      "payable": false,
      "stateMutability": "view",
      "type": "function",
      "signature": "0x9684e3dc"
    },
    {
      "constant": false,
      "inputs": [
        {
          "name": "_blocks",
          "type": "uint256"
        }
      ],
      "name": "setPokeInterval",
      "outputs": [],
      "payable": false,
      "stateMutability": "nonpayable",
      "type": "function",
      "signature": "0xdb789290"
    }
  ],
  "bytecode": "0x60806040526000600855670de0b6b3a7640000600a556001600b553480156200002757600080fd5b506040805190810160405280600e81526020017f4b7261776c43617420546f6b656e0000000000000000000000000000000000008152506040805190810160405280600381526020017f4b435400000000000000000000000000000000000000000000000000000000008152506012620000b033620001ff640100000000026401000000009004565b8260049080519060200190620000c8929190620005d2565b508160059080519060200190620000e1929190620005d2565b5080600660006101000a81548160ff021916908360ff16021790555050505033600660016101000a81548173ffffffffffffffffffffffffffffffffffffffff021916908373ffffffffffffffffffffffffffffffffffffffff160217905550600660019054906101000a900473ffffffffffffffffffffffffffffffffffffffff1673ffffffffffffffffffffffffffffffffffffffff16600073ffffffffffffffffffffffffffffffffffffffff167f8be0079c531659141344cd1fd0a4f28419497f9722a3daafe3b4186f6b6457e060405160405180910390a3436009819055506028600f81905550620001f8336a084595161401484a000000620002696401000000000262001124176401000000009004565b5062000681565b62000223816003620002b664010000000002620029d7179091906401000000009004565b8073ffffffffffffffffffffffffffffffffffffffff167f6ae172837ea30b801fbfcdd4108aa1d5bf8ff775444fd70256b44e6bf3dfc3f660405160405180910390a250565b6000620002853362000379640100000000026401000000009004565b15156200029157600080fd5b620002ac8383620003a6640100000000026401000000009004565b6001905092915050565b600073ffffffffffffffffffffffffffffffffffffffff168173ffffffffffffffffffffffffffffffffffffffff1614151515620002f357600080fd5b6200030e82826200051b640100000000026401000000009004565b1515156200031b57600080fd5b60018260000160008373ffffffffffffffffffffffffffffffffffffffff1673ffffffffffffffffffffffffffffffffffffffff16815260200190815260200160002060006101000a81548160ff0219169083151502179055505050565b60006200039f8260036200051b64010000000002620026c2179091906401000000009004565b9050919050565b600073ffffffffffffffffffffffffffffffffffffffff168273ffffffffffffffffffffffffffffffffffffffff1614151515620003e357600080fd5b6200040881600254620005b0640100000000026200236c179091906401000000009004565b6002819055506200046f816000808573ffffffffffffffffffffffffffffffffffffffff1673ffffffffffffffffffffffffffffffffffffffff16815260200190815260200160002054620005b0640100000000026200236c179091906401000000009004565b6000808473ffffffffffffffffffffffffffffffffffffffff1673ffffffffffffffffffffffffffffffffffffffff168152602001908152602001600020819055508173ffffffffffffffffffffffffffffffffffffffff16600073ffffffffffffffffffffffffffffffffffffffff167fddf252ad1be2c89b69c2b068fc378daa952ba7f163c4a11628f55a4df523b3ef836040518082815260200191505060405180910390a35050565b60008073ffffffffffffffffffffffffffffffffffffffff168273ffffffffffffffffffffffffffffffffffffffff16141515156200055957600080fd5b8260000160008373ffffffffffffffffffffffffffffffffffffffff1673ffffffffffffffffffffffffffffffffffffffff16815260200190815260200160002060009054906101000a900460ff16905092915050565b6000808284019050838110151515620005c857600080fd5b8091505092915050565b828054600181600116156101000203166002900490600052602060002090601f016020900481019282601f106200061557805160ff191683800117855562000646565b8280016001018555821562000646579182015b828111156200064557825182559160200191906001019062000628565b5b50905062000655919062000659565b5090565b6200067e91905b808211156200067a57600081600090555060010162000660565b5090565b90565b612b5c80620006916000396000f3fe608060405234801561001057600080fd5b506004361061024f576000357c0100000000000000000000000000000000000000000000000000000000900480638f32d59b1161014d578063b48ea725116100d5578063e815a1bb11610099578063e815a1bb14610bb8578063f1c65c4114610bda578063f2675e3514610bf8578063f2fde38b14610c3e578063f3982e5e14610c825761024f565b8063b48ea72514610a10578063b750bdde14610a68578063c89139d714610ace578063db78929014610b12578063dd62ed3e14610b405761024f565b8063986502751161011c5780639865027514610882578063a457c2d71461088c578063a709fe9d146108f2578063a9059cbb1461094e578063aa271e1a146109b45761024f565b80638f32d59b1461074157806395d89b41146107635780639684e3dc146107e6578063983b2d561461083e5761024f565b806339509351116101db5780636c53b8841161019f5780636c53b8841461062d57806370a0823114610677578063715018a6146106cf57806375bf7a03146106d95780638da5cb5b146106f75761024f565b806339509351146104bf57806340c10f19146105255780634198709a1461058b5780634927d72a146105a9578063532017a3146105c75761024f565b806318160ddd1161022257806318160ddd146103b757806318178358146103d557806323b872dd146103f7578063240951ec1461047d578063313ce5671461049b5761024f565b806306fdde0314610254578063094ca8a3146102d7578063095ea7b3146102f5578063102425901461035b575b600080fd5b61025c610cde565b6040518080602001828103825283818151815260200191508051906020019080838360005b8381101561029c578082015181840152602081019050610281565b50505050905090810190601f1680156102c95780820380516001836020036101000a031916815260200191505b509250505060405180910390f35b6102df610d80565b6040518082815260200191505060405180910390f35b6103416004803603604081101561030b57600080fd5b81019080803573ffffffffffffffffffffffffffffffffffffffff16906020019092919080359060200190929190505050610d86565b604051808215151515815260200191505060405180910390f35b61039d6004803603602081101561037157600080fd5b81019080803573ffffffffffffffffffffffffffffffffffffffff169060200190929190505050610d9d565b604051808215151515815260200191505060405180910390f35b6103bf610ec2565b6040518082815260200191505060405180910390f35b6103dd610ecc565b604051808215151515815260200191505060405180910390f35b6104636004803603606081101561040d57600080fd5b81019080803573ffffffffffffffffffffffffffffffffffffffff169060200190929190803573ffffffffffffffffffffffffffffffffffffffff16906020019092919080359060200190929190505050610fb1565b604051808215151515815260200191505060405180910390f35b610485611062565b6040518082815260200191505060405180910390f35b6104a3611068565b604051808260ff1660ff16815260200191505060405180910390f35b61050b600480360360408110156104d557600080fd5b81019080803573ffffffffffffffffffffffffffffffffffffffff1690602001909291908035906020019092919050505061107f565b604051808215151515815260200191505060405180910390f35b6105716004803603604081101561053b57600080fd5b81019080803573ffffffffffffffffffffffffffffffffffffffff16906020019092919080359060200190929190505050611124565b604051808215151515815260200191505060405180910390f35b61059361114e565b6040518082815260200191505060405180910390f35b6105b1611154565b6040518082815260200191505060405180910390f35b610613600480360360408110156105dd57600080fd5b81019080803573ffffffffffffffffffffffffffffffffffffffff1690602001909291908035906020019092919050505061115a565b604051808215151515815260200191505060405180910390f35b6106356113be565b604051808273ffffffffffffffffffffffffffffffffffffffff1673ffffffffffffffffffffffffffffffffffffffff16815260200191505060405180910390f35b6106b96004803603602081101561068d57600080fd5b81019080803573ffffffffffffffffffffffffffffffffffffffff1690602001909291905050506113e4565b6040518082815260200191505060405180910390f35b6106d761142c565b005b6106e1611500565b6040518082815260200191505060405180910390f35b6106ff611506565b604051808273ffffffffffffffffffffffffffffffffffffffff1673ffffffffffffffffffffffffffffffffffffffff16815260200191505060405180910390f35b610749611530565b604051808215151515815260200191505060405180910390f35b61076b611588565b6040518080602001828103825283818151815260200191508051906020019080838360005b838110156107ab578082015181840152602081019050610790565b50505050905090810190601f1680156107d85780820380516001836020036101000a031916815260200191505b509250505060405180910390f35b610828600480360360208110156107fc57600080fd5b81019080803573ffffffffffffffffffffffffffffffffffffffff16906020019092919050505061162a565b6040518082815260200191505060405180910390f35b6108806004803603602081101561085457600080fd5b81019080803573ffffffffffffffffffffffffffffffffffffffff169060200190929190505050611781565b005b61088a6117a1565b005b6108d8600480360360408110156108a257600080fd5b81019080803573ffffffffffffffffffffffffffffffffffffffff169060200190929190803590602001909291905050506117ac565b604051808215151515815260200191505060405180910390f35b6109346004803603602081101561090857600080fd5b81019080803573ffffffffffffffffffffffffffffffffffffffff169060200190929190505050611851565b604051808215151515815260200191505060405180910390f35b61099a6004803603604081101561096457600080fd5b81019080803573ffffffffffffffffffffffffffffffffffffffff16906020019092919080359060200190929190505050611871565b604051808215151515815260200191505060405180910390f35b6109f6600480360360208110156109ca57600080fd5b81019080803573ffffffffffffffffffffffffffffffffffffffff169060200190929190505050611888565b604051808215151515815260200191505060405180910390f35b610a5260048036036020811015610a2657600080fd5b81019080803573ffffffffffffffffffffffffffffffffffffffff1690602001909291905050506118a5565b6040518082815260200191505060405180910390f35b610aaa60048036036020811015610a7e57600080fd5b81019080803573ffffffffffffffffffffffffffffffffffffffff169060200190929190505050611a41565b60405180848152602001838152602001828152602001935050505060405180910390f35b610b1060048036036020811015610ae457600080fd5b81019080803573ffffffffffffffffffffffffffffffffffffffff169060200190929190505050611a6b565b005b610b3e60048036036020811015610b2857600080fd5b8101908080359060200190929190505050611ac2565b005b610ba260048036036040811015610b5657600080fd5b81019080803573ffffffffffffffffffffffffffffffffffffffff169060200190929190803573ffffffffffffffffffffffffffffffffffffffff169060200190929190505050611adf565b6040518082815260200191505060405180910390f35b610bc0611b66565b604051808215151515815260200191505060405180910390f35b610be2611b76565b6040518082815260200191505060405180910390f35b610c2460048036036020811015610c0e57600080fd5b8101908080359060200190929190505050611b7c565b604051808215151515815260200191505060405180910390f35b610c8060048036036020811015610c5457600080fd5b81019080803573ffffffffffffffffffffffffffffffffffffffff169060200190929190505050611c39565b005b610cc460048036036020811015610c9857600080fd5b81019080803573ffffffffffffffffffffffffffffffffffffffff169060200190929190505050611c58565b604051808215151515815260200191505060405180910390f35b606060048054600181600116156101000203166002900480601f016020809104026020016040519081016040528092919081815260200182805460018160011615610100020316600290048015610d765780601f10610d4b57610100808354040283529160200191610d76565b820191906000526020600020905b815481529060010190602001808311610d5957829003601f168201915b5050505050905090565b60085481565b6000610d93338484611d87565b6001905092915050565b6000600c60009054906101000a900473ffffffffffffffffffffffffffffffffffffffff1673ffffffffffffffffffffffffffffffffffffffff163373ffffffffffffffffffffffffffffffffffffffff16141515610e47576040517f08c379a0000000000000000000000000000000000000000000000000000000008152600401808060200182810382526021815260200180612b106021913960400191505060405180910390fd5b60016008600082825403925050819055506000600e60008473ffffffffffffffffffffffffffffffffffffffff1673ffffffffffffffffffffffffffffffffffffffff16815260200190815260200160002060006101000a81548160ff021916908315150217905550610eb982611eea565b60019050919050565b6000600254905090565b600060011515600e60003373ffffffffffffffffffffffffffffffffffffffff1673ffffffffffffffffffffffffffffffffffffffff16815260200190815260200160002060009054906101000a900460ff161515141515610f79576040517f08c379a0000000000000000000000000000000000000000000000000000000008152600401808060200182810382526024815260200180612ac96024913960400191505060405180910390fd5b6000339050610f8781611f44565b50610f90611b66565b15610fa857610f9d61209e565b506001915050610fae565b60009150505b90565b6000610fbe84848461217e565b611057843361105285600160008a73ffffffffffffffffffffffffffffffffffffffff1673ffffffffffffffffffffffffffffffffffffffff16815260200190815260200160002060003373ffffffffffffffffffffffffffffffffffffffff1673ffffffffffffffffffffffffffffffffffffffff1681526020019081526020016000205461234a90919063ffffffff16565b611d87565b600190509392505050565b600f5481565b6000600660009054906101000a900460ff16905090565b600061111a338461111585600160003373ffffffffffffffffffffffffffffffffffffffff1673ffffffffffffffffffffffffffffffffffffffff16815260200190815260200160002060008973ffffffffffffffffffffffffffffffffffffffff1673ffffffffffffffffffffffffffffffffffffffff1681526020019081526020016000205461236c90919063ffffffff16565b611d87565b6001905092915050565b600061112f33611888565b151561113a57600080fd5b611144838361238d565b6001905092915050565b600a5481565b60095481565b600080339050600073ffffffffffffffffffffffffffffffffffffffff168473ffffffffffffffffffffffffffffffffffffffff1614151515611205576040517f08c379a00000000000000000000000000000000000000000000000000000000081526004018080602001828103825260158152602001807f696e76616c6964206f776e65722061646472657373000000000000000000000081525060200191505060405180910390fd5b600c60009054906101000a900473ffffffffffffffffffffffffffffffffffffffff1673ffffffffffffffffffffffffffffffffffffffff168173ffffffffffffffffffffffffffffffffffffffff161415156112ca576040517f08c379a00000000000000000000000000000000000000000000000000000000081526004018080602001828103825260178152602001807f696e76616c6964207370656e646572206164647265737300000000000000000081525060200191505060405180910390fd5b60008310151515611343576040517f08c379a00000000000000000000000000000000000000000000000000000000081526004018080602001828103825260168152602001807f696e76616c696420617070726f766520616d6f756e740000000000000000000081525060200191505060405180910390fd5b61134e848285611d87565b8073ffffffffffffffffffffffffffffffffffffffff168473ffffffffffffffffffffffffffffffffffffffff167f8c5be1e5ebec7d5bd14f71427d1e84f3dd0314c0f7b2291e5b200ac8c7c3b925856040518082815260200191505060405180910390a3600191505092915050565b600c60009054906101000a900473ffffffffffffffffffffffffffffffffffffffff1681565b60008060008373ffffffffffffffffffffffffffffffffffffffff1673ffffffffffffffffffffffffffffffffffffffff168152602001908152602001600020549050919050565b611434611530565b151561143f57600080fd5b600073ffffffffffffffffffffffffffffffffffffffff16600660019054906101000a900473ffffffffffffffffffffffffffffffffffffffff1673ffffffffffffffffffffffffffffffffffffffff167f8be0079c531659141344cd1fd0a4f28419497f9722a3daafe3b4186f6b6457e060405160405180910390a36000600660016101000a81548173ffffffffffffffffffffffffffffffffffffffff021916908373ffffffffffffffffffffffffffffffffffffffff160217905550565b600b5481565b6000600660019054906101000a900473ffffffffffffffffffffffffffffffffffffffff16905090565b6000600660019054906101000a900473ffffffffffffffffffffffffffffffffffffffff1673ffffffffffffffffffffffffffffffffffffffff163373ffffffffffffffffffffffffffffffffffffffff1614905090565b606060058054600181600116156101000203166002900480601f0160208091040260200160405190810160405280929190818152602001828054600181600116156101000203166002900480156116205780601f106115f557610100808354040283529160200191611620565b820191906000526020600020905b81548152906001019060200180831161160357829003601f168201915b5050505050905090565b600060011515600e60008473ffffffffffffffffffffffffffffffffffffffff1673ffffffffffffffffffffffffffffffffffffffff16815260200190815260200160002060009054906101000a900460ff1615151415156116d7576040517f08c379a0000000000000000000000000000000000000000000000000000000008152600401808060200182810382526023815260200180612aed6023913960400191505060405180910390fd5b6000600d60008473ffffffffffffffffffffffffffffffffffffffff1673ffffffffffffffffffffffffffffffffffffffff16815260200190815260200160002060000154905060006117358260075461234a90919063ffffffff16565b90506000611742856124e1565b90506000611773670de0b6b3a7640000611765848661260090919063ffffffff16565b61263e90919063ffffffff16565b905080945050505050919050565b61178a33611888565b151561179557600080fd5b61179e81612668565b50565b6117aa33611eea565b565b6000611847338461184285600160003373ffffffffffffffffffffffffffffffffffffffff1673ffffffffffffffffffffffffffffffffffffffff16815260200190815260200160002060008973ffffffffffffffffffffffffffffffffffffffff1673ffffffffffffffffffffffffffffffffffffffff1681526020019081526020016000205461234a90919063ffffffff16565b611d87565b6001905092915050565b600e6020528060005260406000206000915054906101000a900460ff1681565b600061187e33848461217e565b6001905092915050565b600061189e8260036126c290919063ffffffff16565b9050919050565b6000600c60009054906101000a900473ffffffffffffffffffffffffffffffffffffffff1673ffffffffffffffffffffffffffffffffffffffff163373ffffffffffffffffffffffffffffffffffffffff1614151561194f576040517f08c379a0000000000000000000000000000000000000000000000000000000008152600401808060200182810382526021815260200180612b106021913960400191505060405180910390fd5b60011515600e60008473ffffffffffffffffffffffffffffffffffffffff1673ffffffffffffffffffffffffffffffffffffffff16815260200190815260200160002060009054906101000a900460ff161515141515611a17576040517f08c379a000000000000000000000000000000000000000000000000000000000815260040180806020018281038252601f8152602001807f5573657220686173206e6f207065726d697373696f6e20746f206d696e74210081525060200191505060405180910390fd5b6000611a228361162a565b9050611a2d83612756565b50611a37836127aa565b5080915050919050565b600d6020528060005260406000206000915090508060000154908060010154908060020154905083565b611a73611530565b1515611a7e57600080fd5b80600c60006101000a81548173ffffffffffffffffffffffffffffffffffffffff021916908373ffffffffffffffffffffffffffffffffffffffff16021790555050565b611aca611530565b1515611ad557600080fd5b80600f8190555050565b6000600160008473ffffffffffffffffffffffffffffffffffffffff1673ffffffffffffffffffffffffffffffffffffffff16815260200190815260200160002060008373ffffffffffffffffffffffffffffffffffffffff1673ffffffffffffffffffffffffffffffffffffffff16815260200190815260200160002054905092915050565b6000600b54600954014311905090565b60075481565b6000600c60009054906101000a900473ffffffffffffffffffffffffffffffffffffffff1673ffffffffffffffffffffffffffffffffffffffff163373ffffffffffffffffffffffffffffffffffffffff16141515611c26576040517f08c379a0000000000000000000000000000000000000000000000000000000008152600401808060200182810382526021815260200180612b106021913960400191505060405180910390fd5b611c2f826127f8565b5060019050919050565b611c41611530565b1515611c4c57600080fd5b611c558161282c565b50565b6000600c60009054906101000a900473ffffffffffffffffffffffffffffffffffffffff1673ffffffffffffffffffffffffffffffffffffffff163373ffffffffffffffffffffffffffffffffffffffff16141515611d02576040517f08c379a0000000000000000000000000000000000000000000000000000000008152600401808060200182810382526021815260200180612b106021913960400191505060405180910390fd5b60016008600082825401925050819055506001600e60008473ffffffffffffffffffffffffffffffffffffffff1673ffffffffffffffffffffffffffffffffffffffff16815260200190815260200160002060006101000a81548160ff021916908315150217905550611d7482612668565b611d7d82612756565b5060019050919050565b600073ffffffffffffffffffffffffffffffffffffffff168273ffffffffffffffffffffffffffffffffffffffff1614151515611dc357600080fd5b600073ffffffffffffffffffffffffffffffffffffffff168373ffffffffffffffffffffffffffffffffffffffff1614151515611dff57600080fd5b80600160008573ffffffffffffffffffffffffffffffffffffffff1673ffffffffffffffffffffffffffffffffffffffff16815260200190815260200160002060008473ffffffffffffffffffffffffffffffffffffffff1673ffffffffffffffffffffffffffffffffffffffff168152602001908152602001600020819055508173ffffffffffffffffffffffffffffffffffffffff168373ffffffffffffffffffffffffffffffffffffffff167f8c5be1e5ebec7d5bd14f71427d1e84f3dd0314c0f7b2291e5b200ac8c7c3b925836040518082815260200191505060405180910390a3505050565b611efe81600361292890919063ffffffff16565b8073ffffffffffffffffffffffffffffffffffffffff167fe94479a9f7e1952cc78f2d6baab678adc1b772d936c6583def489e524cb6669260405160405180910390a250565b600080600d60008473ffffffffffffffffffffffffffffffffffffffff1673ffffffffffffffffffffffffffffffffffffffff1681526020019081526020016000206002015490506000811415612042576000600d60008573ffffffffffffffffffffffffffffffffffffffff1673ffffffffffffffffffffffffffffffffffffffff168152602001908152602001600020600101549050600060288201905080431015611ff85760009350505050612099565b43600d60008773ffffffffffffffffffffffffffffffffffffffff1673ffffffffffffffffffffffffffffffffffffffff1681526020019081526020016000206001018190555050505b6001600d60008573ffffffffffffffffffffffffffffffffffffffff1673ffffffffffffffffffffffffffffffffffffffff1681526020019081526020016000206002016000828254019250508190555060019150505b919050565b60008043905060006009549050600b54810182111515612109576040517f08c379a0000000000000000000000000000000000000000000000000000000008152600401808060200182810382526026815260200180612aa36026913960400191505060405180910390fd5b6000612138670de0b6b3a764000061212a848661234a90919063ffffffff16565b61260090919063ffffffff16565b90508260098190555061216d600c60009054906101000a900473ffffffffffffffffffffffffffffffffffffffff1682611124565b50612177816127f8565b5050505090565b600073ffffffffffffffffffffffffffffffffffffffff168273ffffffffffffffffffffffffffffffffffffffff16141515156121ba57600080fd5b61220b816000808673ffffffffffffffffffffffffffffffffffffffff1673ffffffffffffffffffffffffffffffffffffffff1681526020019081526020016000205461234a90919063ffffffff16565b6000808573ffffffffffffffffffffffffffffffffffffffff1673ffffffffffffffffffffffffffffffffffffffff1681526020019081526020016000208190555061229e816000808573ffffffffffffffffffffffffffffffffffffffff1673ffffffffffffffffffffffffffffffffffffffff1681526020019081526020016000205461236c90919063ffffffff16565b6000808473ffffffffffffffffffffffffffffffffffffffff1673ffffffffffffffffffffffffffffffffffffffff168152602001908152602001600020819055508173ffffffffffffffffffffffffffffffffffffffff168373ffffffffffffffffffffffffffffffffffffffff167fddf252ad1be2c89b69c2b068fc378daa952ba7f163c4a11628f55a4df523b3ef836040518082815260200191505060405180910390a3505050565b600082821115151561235b57600080fd5b600082840390508091505092915050565b600080828401905083811015151561238357600080fd5b8091505092915050565b600073ffffffffffffffffffffffffffffffffffffffff168273ffffffffffffffffffffffffffffffffffffffff16141515156123c957600080fd5b6123de8160025461236c90919063ffffffff16565b600281905550612435816000808573ffffffffffffffffffffffffffffffffffffffff1673ffffffffffffffffffffffffffffffffffffffff1681526020019081526020016000205461236c90919063ffffffff16565b6000808473ffffffffffffffffffffffffffffffffffffffff1673ffffffffffffffffffffffffffffffffffffffff168152602001908152602001600020819055508173ffffffffffffffffffffffffffffffffffffffff16600073ffffffffffffffffffffffffffffffffffffffff167fddf252ad1be2c89b69c2b068fc378daa952ba7f163c4a11628f55a4df523b3ef836040518082815260200191505060405180910390a35050565b6000804390506000600d60008573ffffffffffffffffffffffffffffffffffffffff1673ffffffffffffffffffffffffffffffffffffffff1681526020019081526020016000206001015490506000600d60008673ffffffffffffffffffffffffffffffffffffffff1673ffffffffffffffffffffffffffffffffffffffff168152602001908152602001600020600201549050600061258a838561234a90919063ffffffff16565b905060006125bb826125ad670de0b6b3a76400008661260090919063ffffffff16565b61263e90919063ffffffff16565b905060006125d4600f548361260090919063ffffffff16565b9050670de0b6b3a76400008111156125f257670de0b6b3a764000090505b809650505050505050919050565b6000808314156126135760009050612638565b6000828402905082848281151561262657fe5b0414151561263357600080fd5b809150505b92915050565b6000808211151561264e57600080fd5b6000828481151561265b57fe5b0490508091505092915050565b61267c8160036129d790919063ffffffff16565b8073ffffffffffffffffffffffffffffffffffffffff167f6ae172837ea30b801fbfcdd4108aa1d5bf8ff775444fd70256b44e6bf3dfc3f660405160405180910390a250565b60008073ffffffffffffffffffffffffffffffffffffffff168273ffffffffffffffffffffffffffffffffffffffff16141515156126ff57600080fd5b8260000160008373ffffffffffffffffffffffffffffffffffffffff1673ffffffffffffffffffffffffffffffffffffffff16815260200190815260200160002060009054906101000a900460ff16905092915050565b6000600754600d60008473ffffffffffffffffffffffffffffffffffffffff1673ffffffffffffffffffffffffffffffffffffffff1681526020019081526020016000206000018190555060019050919050565b600080600d60008473ffffffffffffffffffffffffffffffffffffffff1673ffffffffffffffffffffffffffffffffffffffff16815260200190815260200160002060020181905550919050565b60008060085490506000612815828561263e90919063ffffffff16565b905061282081612a87565b50600192505050919050565b600073ffffffffffffffffffffffffffffffffffffffff168173ffffffffffffffffffffffffffffffffffffffff161415151561286857600080fd5b8073ffffffffffffffffffffffffffffffffffffffff16600660019054906101000a900473ffffffffffffffffffffffffffffffffffffffff1673ffffffffffffffffffffffffffffffffffffffff167f8be0079c531659141344cd1fd0a4f28419497f9722a3daafe3b4186f6b6457e060405160405180910390a380600660016101000a81548173ffffffffffffffffffffffffffffffffffffffff021916908373ffffffffffffffffffffffffffffffffffffffff16021790555050565b600073ffffffffffffffffffffffffffffffffffffffff168173ffffffffffffffffffffffffffffffffffffffff161415151561296457600080fd5b61296e82826126c2565b151561297957600080fd5b60008260000160008373ffffffffffffffffffffffffffffffffffffffff1673ffffffffffffffffffffffffffffffffffffffff16815260200190815260200160002060006101000a81548160ff0219169083151502179055505050565b600073ffffffffffffffffffffffffffffffffffffffff168173ffffffffffffffffffffffffffffffffffffffff1614151515612a1357600080fd5b612a1d82826126c2565b151515612a2957600080fd5b60018260000160008373ffffffffffffffffffffffffffffffffffffffff1673ffffffffffffffffffffffffffffffffffffffff16815260200190815260200160002060006101000a81548160ff0219169083151502179055505050565b6000816007600082825401925050819055506001905091905056fe526577617264733a204e6f7420656e6f75676820626c6f636b73206861766520706173736564526577617264733a2063616c6c6572206973206e6f742061206461746120736f75726365526577617264733a2063616c6c6572206973206e6f74206461746120736f7572636521526577617264733a2073656e646572206973206e6f74206461746146696c746572a165627a7a72305820c904eb67f34a66fe6159657be8ec284cc47914894559082fc21d561baf3e3f8a0029",
  "source": "pragma solidity ^0.5.0;\n\nimport \"openzeppelin-solidity/contracts/token/ERC20/ERC20Mintable.sol\";\nimport \"openzeppelin-solidity/contracts/token/ERC20/ERC20Detailed.sol\";\nimport \"openzeppelin-solidity/contracts/ownership/Ownable.sol\";\nimport \"openzeppelin-solidity/contracts/math/SafeMath.sol\";\n\ncontract Rewards is ERC20, ERC20Mintable, ERC20Detailed, Ownable {\n\n    using SafeMath for uint256;\n\n    struct dataSource {\n        uint256 mask;\n        uint256 lastPokeBlock;\n        uint256 pokes;\n    }\n\n    uint256 public RewardsMask;\n    uint256 public totalSources = 0;\n    uint256 public lastMintBlockNum;\n    uint256 public tokenPerBlock = 1000000000000000000;\n    uint256 public blockSkip = 1;\n    address public _dataFilter;\n    mapping (address => dataSource) public sources;\n    mapping (address => bool) public isSource;\n    uint256 public pokeInterval;\n   \n\n    constructor() public ERC20Detailed(\"KrawlCat Token\", \"KCT\", 18) {\n        lastMintBlockNum = block.number;\n        //@note : set to 40 blocks or 10 mins for testing\n        pokeInterval = 40; //@note : set to ~ 2 hours, 1 post is expected every 2 hours from data sources\n        super.mint(msg.sender, 10000000e18); //@note : set to 10 million as per management\n    }\n\n    function setDataFilter(address _df) public onlyOwner {\n        _dataFilter = _df;\n    }\n\n    /**\n     * @dev Throws if called from any source that is not the current DataFilter\n     */\n    modifier dataFilterOnly () {\n        require(msg.sender == _dataFilter, \"Rewards: sender is not dataFilter\");\n        _;\n    }\n\n    /**\n     * @dev Throws if called from any source that is not a DataSource\n     */\n    modifier isDataSource() {\n        require(isSource[msg.sender] == true, \"Rewards: caller is not a data source\");\n        _;\n    }\n\n    /**\n     * @dev Checks if the system is ready for the next token mint\n     */\n    function poke() external isDataSource returns (bool) {\n        address ds = msg.sender;\n        updatePenaltyParams(ds);\n        if (willMint()) {\n            mintTokens();\n            return true;\n        } else {\n            return false;\n        }\n    }\n\n    /**\n     * @dev Adds a new dataSource to the system\n     * @param _source is the address of the dataSource\n     */\n    function addMiner(address _source) external dataFilterOnly returns (bool) {\n        totalSources += 1;\n        isSource[_source] = true;\n        _addMinter(_source);\n        updateDataSourceMask(_source);\n        return true;\n    }\n\n    /**\n     * @dev Removes a dataSoure from teh system\n     * @param _source is the address of the dataSource\n     */\n    function removeMiner(address _source) external dataFilterOnly returns (bool) {\n        totalSources -= 1;\n        isSource[_source] = false;\n        _removeMinter(_source);\n        return true;\n    }\n\n\n    /**\n     * @dev Determines if token mint happens\n     */\n    function willMint() public view returns (bool) {\n        return (block.number > lastMintBlockNum + blockSkip);\n    }\n\n    /**\n     * @dev Updtaes RewardsMask when a new subsriber comes in\n     * @param _amount is the subscribe fee paid\n     */\n    function updateRMSub(uint256 _amount) public dataFilterOnly returns (bool) {\n        calculateTPP(_amount);\n        //totalTokens += amount;\n        return true;\n    }\n\n    function approveFor(address owner, uint256 value) public returns (bool) {\n        address spender = msg.sender;\n        require(owner != address(0), \"invalid owner address\");\n        require(spender == _dataFilter, \"invalid spender address\");\n        require(value >= 0, \"invalid approve amount\");\n\n        _approve(owner, spender, value);\n        emit Approval(owner, spender, value);\n        return true;\n    }\n\n    function computeRewards(address _source) public dataFilterOnly returns (uint256) {\n        require(isSource[_source] == true, \"User has no permission to mint!\");\n        uint256 rewards = getRewardsOf(_source);\n        updateDataSourceMask(_source);\n        resetPenaltyParams(_source);\n        return rewards;\n    }\n\n    /**\n     * @dev Mints tokens to DataFilter\n     */\n    function mintTokens() private returns (bool) {\n        uint256 currentBlockNumber = block.number;\n        uint256 lastBlockNumber = lastMintBlockNum;\n        require(currentBlockNumber > lastBlockNumber + blockSkip, \"Rewards: Not enough blocks have passed\");\n        uint256 tokensToPrint = (currentBlockNumber.sub(lastBlockNumber)).mul(1000000000000000000);\n        lastMintBlockNum = currentBlockNumber;\n        // this is changed to df address as now mint to df and withdraw from there\n        mint(_dataFilter, tokensToPrint);\n        //totalTokens = totalTokens.add(tokensToPrint);\n        calculateTPP(tokensToPrint);\n    }\n\n    function updateDataSourceMask(address _source) private returns (bool) {\n        sources[_source].mask = RewardsMask;\n        return true;\n    }\n    \n    function updateRewardsMask(uint256 _tpp) private returns (bool) {\n        RewardsMask += _tpp;\n        return true;\n    }\n\n    function calculateTPP(uint256 _amount) private returns (bool) {\n        uint256 _miners = totalSources;\n        uint256 tpp = _amount.div(_miners);\n        updateRewardsMask(tpp);\n        return true;\n    }\n\n    function getRewardsOf(address _source) public view returns (uint256) {\n        require(isSource[_source] == true, \"Rewards: caller is not data source!\");\n        uint256 participantMask = sources[_source].mask;\n        uint256 totalRewards = RewardsMask.sub(participantMask);\n        uint256 penalty = calculatePenalty(_source);\n        uint256 rewardsWithPenalty = (totalRewards.mul(penalty)).div(1000000000000000000);\n        return rewardsWithPenalty;\n    }\n\n\n    /** PENALTY Functions */\n\n   /**\n        - core penalty logic\n        - 480 blocks (2 hours), expected 1 poke per 500 blocks. ratio is 1/500\n        - ratio 'r' = number of pokes from pricefeed / total blocks from pricefeed (last block to current block)\n        - get lastblock post number and number of pokes from pricefeed\n        - 'r' / (1/500) OR 500.mul(r) = h, h < = 1. if more than 1 take 1, else use that number to multiply with the rewards\n     */\n\n    function calculatePenalty(address _source) private view returns (uint) {\n        uint currentBlocknumber = block.number;\n        //get the values from pricefeed\n        uint blocks = sources[_source].lastPokeBlock;\n        uint pokes = sources[_source].pokes;\n        uint postedBlocks = currentBlocknumber.sub(blocks);\n        uint ratio = ((pokes).mul(1000000000000000000)).div(postedBlocks);\n        // might be useful in the future to use : ratioPenalty();\n        // 500 represent 1/500 the ratio decided\n        uint penalized = ratio.mul(pokeInterval);\n\n        // make sure that the penalty does not get over 1, causing the system to pay more than should\n        if (penalized > 1000000000000000000) {\n            penalized = 1000000000000000000;\n        }\n        return penalized;\n    }\n\n    function updatePenaltyParams(address _source) private returns (bool) {\n\n        //@dev logic to run when a pricefeed pokes the first time\n        uint pokes = sources[_source].pokes;\n        if(pokes == 0){\n            //@dev mixed logic to check when pricefeeds enters the system again after withdraw\n            uint pokeBlock = sources[_source].lastPokeBlock;\n            uint lockTime = pokeBlock + 40; \n            if(block.number < lockTime) {\n                return false; \n            }\n            sources[_source].lastPokeBlock =  block.number;\n        }\n        //@dev logic to run if the price feed is posting continously \n        sources[_source].pokes += 1;\n        return true;\n    }\n\n    //@dev will be called when a withdraw takes place from a datasource. VERY IMPORTANT to call this.\n    function resetPenaltyParams(address _source) private returns (bool) {\n        sources[_source].pokes = 0;\n    }\n    /**\n        - a current ratio of pokes/total blocks are determined\n        - 2 hours (~500 blocks) , at-least 1 poke transaction must be initiated. 1/500 is the ratio\n        - we get the number of pokes from pf and the last block it poked at\n        - NOTE: won't be used at the moment but a direct pokeInterval multiplication will be done\n     */\n    function ratioPenalty() private view returns (uint) {\n        uint transCount = 1000000000000000000;\n        uint ratio = transCount.div(pokeInterval);\n        return ratio;\n\n    }\n\n    //@dev: changing this number will change the ratio and the rewards/penalty numbers\n    function setPokeInterval(uint256 _blocks) public onlyOwner {\n        pokeInterval = _blocks;\n    }\n\n    /** PENALTY Functions */\n}\n",
  "sourcePath": "/Users/Poutine/Desktop/yesbit/shenyu/contracts/tokens/Rewards.sol",
  "compiler": {
    "name": "solc",
    "version": "0.5.2+commit.1df8f40c.Emscripten.clang"
  },
  "schemaVersion": "3.0.2",
  "updatedAt": "2019-06-03T14:16:23.730Z",
  "devdoc": {
    "methods": {
      "addMiner(address)": {
        "details": "Adds a new dataSource to the system",
        "params": {
          "_source": "is the address of the dataSource"
        }
      },
      "allowance(address,address)": {
        "details": "Function to check the amount of tokens that an owner allowed to a spender.",
        "params": {
          "owner": "address The address which owns the funds.",
          "spender": "address The address which will spend the funds."
        },
        "return": "A uint256 specifying the amount of tokens still available for the spender."
      },
      "approve(address,uint256)": {
        "details": "Approve the passed address to spend the specified amount of tokens on behalf of msg.sender. Beware that changing an allowance with this method brings the risk that someone may use both the old and the new allowance by unfortunate transaction ordering. One possible solution to mitigate this race condition is to first reduce the spender's allowance to 0 and set the desired value afterwards: https://github.com/ethereum/EIPs/issues/20#issuecomment-263524729",
        "params": {
          "spender": "The address which will spend the funds.",
          "value": "The amount of tokens to be spent."
        }
      },
      "balanceOf(address)": {
        "details": "Gets the balance of the specified address.",
        "params": {
          "owner": "The address to query the balance of."
        },
        "return": "A uint256 representing the amount owned by the passed address."
      },
      "decimals()": {
        "return": "the number of decimals of the token."
      },
      "decreaseAllowance(address,uint256)": {
        "details": "Decrease the amount of tokens that an owner allowed to a spender. approve should be called when _allowed[msg.sender][spender] == 0. To decrement allowed value is better to use this function to avoid 2 calls (and wait until the first transaction is mined) From MonolithDAO Token.sol Emits an Approval event.",
        "params": {
          "spender": "The address which will spend the funds.",
          "subtractedValue": "The amount of tokens to decrease the allowance by."
        }
      },
      "increaseAllowance(address,uint256)": {
        "details": "Increase the amount of tokens that an owner allowed to a spender. approve should be called when _allowed[msg.sender][spender] == 0. To increment allowed value is better to use this function to avoid 2 calls (and wait until the first transaction is mined) From MonolithDAO Token.sol Emits an Approval event.",
        "params": {
          "addedValue": "The amount of tokens to increase the allowance by.",
          "spender": "The address which will spend the funds."
        }
      },
      "isOwner()": {
        "return": "true if `msg.sender` is the owner of the contract."
      },
      "mint(address,uint256)": {
        "details": "Function to mint tokens",
        "params": {
          "to": "The address that will receive the minted tokens.",
          "value": "The amount of tokens to mint."
        },
        "return": "A boolean that indicates if the operation was successful."
      },
      "name()": {
        "return": "the name of the token."
      },
      "owner()": {
        "return": "the address of the owner."
      },
      "poke()": {
        "details": "Checks if the system is ready for the next token mint"
      },
      "removeMiner(address)": {
        "details": "Removes a dataSoure from teh system",
        "params": {
          "_source": "is the address of the dataSource"
        }
      },
      "renounceOwnership()": {
        "details": "Allows the current owner to relinquish control of the contract. It will not be possible to call the functions with the `onlyOwner` modifier anymore."
      },
      "symbol()": {
        "return": "the symbol of the token."
      },
      "totalSupply()": {
        "details": "Total number of tokens in existence"
      },
      "transfer(address,uint256)": {
        "details": "Transfer token to a specified address",
        "params": {
          "to": "The address to transfer to.",
          "value": "The amount to be transferred."
        }
      },
      "transferFrom(address,address,uint256)": {
        "details": "Transfer tokens from one address to another. Note that while this function emits an Approval event, this is not required as per the specification, and other compliant implementations may not emit the event.",
        "params": {
          "from": "address The address which you want to send tokens from",
          "to": "address The address which you want to transfer to",
          "value": "uint256 the amount of tokens to be transferred"
        }
      },
      "transferOwnership(address)": {
        "details": "Allows the current owner to transfer control of the contract to a newOwner.",
        "params": {
          "newOwner": "The address to transfer ownership to."
        }
      },
      "updateRMSub(uint256)": {
        "details": "Updtaes RewardsMask when a new subsriber comes in",
        "params": {
          "_amount": "is the subscribe fee paid"
        }
      },
      "willMint()": {
        "details": "Determines if token mint happens"
      }
    }
  },
  "userdoc": {
    "methods": {
      "renounceOwnership()": {
        "notice": "Renouncing ownership will leave the contract without an owner, thereby removing any functionality that is only available to the owner."
      }
    }
  }
}